:020000040800F2
:100000000050002085100008C50E0008C70E00082B
:10001000C90E0008CB0E0008CD0E0008000000003D
:10002000000000000000000000000000CF0E0008EB
:10003000D10E000800000000D30E0008D50E000805
:10004000CD100008CD100008CD100008CD1000081C
:10005000CD100008CD100008DD0E0008CD100008FE
:10006000CD100008CD100008CD100008CD100008FC
:10007000CD100008CD100008CD100008CD100008EC
:10008000CD100008CD100008CD100008CD100008DC
:10009000CD100008CD100008CD100008CD100008CC
:1000A000CD100008CD100008CD100008CD100008BC
:1000B000CD100008CD100008CD100008CD100008AC
:1000C000CD100008CD100008CD100008CD1000089C
:1000D000CD100008E90E0008CD100008CD10000872
:1000E000F90E0008CD100008CD1000080000000037
:1000F0000000000000000000000000000000000000
:0C01000000000000000000005FF808F1A3
:1001100081F0004102E000BF83F0004330B54FEAB8
:1001200041044FEA430594EA050F08BF90EA020F25
:100130001FBF54EA000C55EA020C7FEA645C7FEAB8
:10014000655C00F0E2804FEA5454D4EB5555B8BFDB
:100150006D420CDD2C4480EA020281EA030382EA4C
:10016000000083EA010180EA020281EA0303362DDE
:1001700088BF30BD11F0004F4FEA01314FF4801CB1
:100180004CEA113102D0404261EB410113F0004FC3
:100190004FEA03334CEA133302D0524263EB43037A
:1001A00094EA050F00F0A780A4F10104D5F1200E18
:1001B0000DDB02FA0EFC22FA05F2801841F1000173
:1001C00003FA0EF2801843FA05F359410EE0A5F147
:1001D00020050EF1200E012A03FA0EFC28BF4CF078
:1001E000020C43FA05F3C01851EBE37101F000452E
:1001F00007D54FF0000EDCF1000C7EEB00006EEB3B
:100200000101B1F5801F1BD3B1F5001F0CD34908C4
:100210005FEA30004FEA3C0C04F101044FEA44521B
:1002200012F5800F80F09A80BCF1004F08BF5FEAA2
:10023000500C50F1000041EB045141EA050130BD82
:100240005FEA4C0C404141EB0101013C28BFB1F594
:10025000801FE9D291F0000F04BF01460020B1FADF
:1002600081F308BF2033A3F10B03B3F120020CDAB2
:100270000C3208DD02F1140CC2F10C0201FA0CF090
:1002800021FA02F10CE002F11402D8BFC2F1200CF5
:1002900001FA02F120FA0CFCDCBF41EA0C019040AB
:1002A000E41AA2BF01EB0451294330BD6FEA0404F4
:1002B0001F3C1CDA0C340EDC04F11404C4F12002DF
:1002C00020FA04F001FA02F340EA030021FA04F3F1
:1002D00045EA030130BDC4F10C04C4F1200220FA48
:1002E00002F001FA04F340EA0300294630BD21FA86
:1002F00004F0294630BD94F0000F83F4801306BF4C
:1003000081F480110134013D4EE77FEA645C18BF3F
:100310007FEA655C29D094EA050F08BF90EA020FD6
:1003200005D054EA000C04BF1946104630BD91EACE
:10033000030F1EBF0021002030BD5FEA545C05D1D1
:100340004000494128BF41F0004130BD14F5800410
:100350003CBF01F5801130BD01F0004545F0FE4184
:1003600041F470014FF0000030BD7FEA645C1ABFB9
:10037000194610467FEA655C1CBF0B46024650EAF0
:10038000013406BF52EA033591EA030F41F400211C
:1003900030BD00BF90F0000F04BF0021704730B5A2
:1003A0004FF4806404F132044FF000054FF0000177
:1003B00050E700BF90F0000F04BF0021704730B538
:1003C0004FF4806404F1320410F0004548BF40420D
:1003D0004FF000013EE700BF42004FEAE2014FEA62
:1003E00031014FEA02701FBF12F07F4393F07F4F3D
:1003F00081F06051704732F07F4208BF704793F040
:100400007F4F04BF41F40021704730B54FF4607452
:1004100001F0004521F000411CE700BF50EA010255
:1004200008BF704730B54FF000050AE050EA0102FE
:1004300008BF704730B511F0004502D5404261EB6E
:1004400041014FF4806404F132045FEA915C3FF4AF
:10045000D8AE4FF003025FEADC0C18BF03325FEA4C
:10046000DC0C18BF033202EBDC02C2F1200300FAFD
:1004700003FC20FA02F001FA03FE40EA0E0021FA22
:1004800002F11444BDE600BF70B54FF0FF0C4CF410
:10049000E06C1CEA11541DBF1CEA135594EA0C0FC2
:1004A00095EA0C0F00F0DEF82C4481EA030621EAFD
:1004B0004C5123EA4C5350EA013518BF52EA033538
:1004C00041F4801143F4801338D0A0FB02CE4FF0EA
:1004D0000005E1FB02E506F00042E0FB03E54FF01A
:1004E0000006E1FB03569CF0000F18BF4EF0010E12
:1004F000A4F1FF04B6F5007F64F5407404D25FEA0E
:100500004E0E6D4146EB060642EAC62141EA5551C0
:100510004FEAC52040EA5E504FEACE2EB4F1FD0C02
:1005200088BFBCF5E06F1ED8BEF1004F08BF5FEA80
:10053000500E50F1000041EB045170BD06F0004632
:1005400046EA010140EA020081EA0301B4EB5C04DF
:10055000C2BFD4EB0C0541EA045170BD41F48011D7
:100560004FF0000E013C00F3AB8014F1360FDEBFFC
:10057000002001F0004170BDC4F10004203C35DAD8
:100580000C341BDC04F11404C4F1200500FA05F35B
:1005900020FA04F001FA05F240EA020001F00042FC
:1005A00021F0004110EBD37021FA04F642EB060172
:1005B0005EEA430E08BF20EAD37070BDC4F10C049C
:1005C000C4F1200500FA04F320FA05F001FA04F260
:1005D00040EA020001F0004110EBD37041F100014C
:1005E0005EEA430E08BF20EAD37070BDC4F1200557
:1005F00000FA05F24EEA020E20FA04F301FA05F2BF
:1006000043EA020321FA04F001F0004121FA04F266
:1006100020EA020000EBD3705EEA430E08BF20EA36
:10062000D37070BD94F0000F0FD101F00046400070
:1006300041EB010111F4801F08BF013CF7D041EAF2
:10064000060195F0000F18BF704703F000465200F6
:1006500043EB030313F4801F08BF013DF7D043EAC7
:100660000603704794EA0C0F0CEA135518BF95EA7D
:100670000C0F0CD050EA410618BF52EA4306D1D104
:1006800081EA030101F000414FF0000070BD50EA23
:10069000410606BF1046194652EA430619D094EAAD
:1006A0000C0F02D150EA013613D195EA0C0F05D197
:1006B00052EA03361CBF104619460AD181EA0301EB
:1006C00001F0004141F0FE4141F470014FF00000A3
:1006D00070BD41F0FE4141F4780170BD70B54FF03E
:1006E000FF0C4CF4E06C1CEA11541DBF1CEA1355BE
:1006F00094EA0C0F95EA0C0F00F0A7F8A4EB0504A0
:1007000081EA030E52EA03354FEA013100F0888096
:100710004FEA03334FF0805545EA131343EA12635F
:100720004FEA022245EA111545EA10654FEA002614
:100730000EF000419D4208BF964244F1FD0404F5CD
:10074000407402D25B084FEA3202B61A65EB030529
:100750005B084FEA32024FF480104FF4002CB6EBE6
:10076000020E75EB030E22BFB61A754640EA0C0066
:100770005B084FEA3202B6EB020E75EB030E22BFA6
:10078000B61A754640EA5C005B084FEA3202B6EBE7
:10079000020E75EB030E22BFB61A754640EA9C00A6
:1007A0005B084FEA3202B6EB020E75EB030E22BF76
:1007B000B61A754640EADC0055EA060E18D04FEA34
:1007C000051545EA16754FEA06164FEAC30343EAD4
:1007D00052734FEAC2025FEA1C1CC0D111F4801FA1
:1007E0000BD141EA00014FF000004FF0004CB6E79A
:1007F00011F4801F04BF01430020B4F1FD0C88BF39
:10080000BCF5E06F3FF6AFAEB5EB030C04BFB6EB43
:10081000020C5FEA500C50F1000041EB045170BD36
:100820000EF0004E4EEA113114EB5C04C2BFD4EB63
:100830000C0541EA045170BD41F480114FF0000EE7
:10084000013C90E645EA060E8DE60CEA135594EA63
:100850000C0F08BF95EA0C0F3FF43BAF94EA0C0F66
:100860000AD150EA01347FF434AF95EA0C0F7FF4DB
:1008700025AF104619462CE795EA0C0F06D152EA2F
:1008800003353FF4FDAE1046194622E750EA410613
:1008900018BF52EA43067FF4C5AE50EA41047FF424
:1008A0000DAF52EA43057FF4EBAE12E74FF0FF3C89
:1008B00006E000BF4FF0010C02E000BF4FF0010C5A
:1008C0004DF804CD4FEA410C7FEA6C5C4FEA430CD3
:1008D00018BF7FEA6C5C1BD001B050EA410C0CBF22
:1008E00052EA430C91EA030F02BF90EA020F002084
:1008F000704710F1000F91EA030F58BF994208BFEB
:1009000090422CBFD8176FEAE37040F001007047A7
:100910004FEA410C7FEA6C5C02D150EA013C07D1FE
:100920004FEA430C7FEA6C5CD6D152EA033CD3D049
:100930005DF8040B704700BF8446104662468C4643
:100940001946634600E000BF01B5FFF7B7FF002876
:1009500048BF10F1000F01BD4DF808EDFFF7F4FF9F
:100960000CBF012000205DF808FB00BF4DF808ED2A
:10097000FFF7EAFF34BF012000205DF808FB00BF4D
:100980004DF808EDFFF7E0FF94BF012000205DF86F
:1009900008FB00BF4DF808EDFFF7CEFF94BF012024
:1009A00000205DF808FB00BF4DF808EDFFF7C4FF1D
:1009B00034BF012000205DF808FB00BF4FEA410270
:1009C00012F5001215D211D56FF47873B3EB6252A1
:1009D00012D94FEAC12343F0004343EA505311F0C8
:1009E000004F23FA02F018BF404270474FF000005A
:1009F000704750EA013005D111F0004008BF6FF098
:100A0000004070474FF00000704700BF4A0011D20D
:100A100012F5001211D20DD56FF47873B3EB625258
:100A20000ED44FEAC12343F0004343EA505323FA64
:100A300002F070474FF00000704750EA013002D1D9
:100A40004FF0FF3070474FF000007047844641EA96
:100A5000000313F0030349D1403A23D30B6803602A
:100A60004B6843608B688360CB68C3600B6903612C
:100A70004B6943618B698361CB69C3610B6A036214
:100A80004B6A43628B6A8362CB6AC3620B6B0363FC
:100A90004B6B43638B6B8363CB6BC36340304031E1
:100AA000403ADBD230320BD30B6803604B684360B3
:100AB0008B688360CB68C36010301031103AF3D27A
:100AC0000C3205D351F8043B40F8043B043AF9D208
:100AD000043208D0D2071CBF11F8013B00F8013BDB
:100AE00001D30B8803806046704700BF082A13D3E8
:100AF0008B07B1D010F00303AED0C3F10403D21AB8
:100B0000DB071CBF11F8013B00F8013BA4D331F80F
:100B1000023B20F8023B9FE7043AD9D3013A11F88F
:100B2000013B00F8013BF9D20B7803704B7843701E
:100B30008B788370604670474FEA410C7FEA6C5CAB
:100B400002D150EA013C0AD14FEA430C7FEA6C5CC7
:100B500002D152EA033C02D14FF0000070474FF03F
:100B6000010070470348044B834202D0034B03B19A
:100B700018477047F4060020F4060020000000002B
:100B80000548064B1B1AD90F01EBA301491002D0EF
:100B9000034B03B118477047F4060020F406002009
:100BA0000000000010B5064C237843B9FFF7DAFFC8
:100BB000044B13B10448AFF300800123237010BD30
:100BC000F80600200000000014B1000808B5054B2D
:100BD0001BB105490548AFF30080BDE80840FFF7A9
:100BE000CFBF00BF00000000FC06002014B10008C9
:100BF0002DE9F04389B004AD0024049405940694D3
:100C00000794384B9A6942F020029A619A6902F07F
:100C100020020192019A9A6942F004029A619A694B
:100C200002F004020292029A9A6942F008029A6162
:100C30009B6903F008030393039BDFF8AC80224613
:100C40000621404600F08EFD01221021404600F0B2
:100C500089FD264E01224FF40051304600F082FDFE
:100C6000162304934FF00109CDF81490069403273E
:100C700007972946404600F0B7FBCDF81090DFF803
:100C80007080CDF81480022306932946304600F088
:100C9000ABFB4FF480530493CDF81480069429469F
:100CA000304600F0A1FB4FF4005304931123059349
:100CB000069407972946304600F096FB22463946AF
:100CC000062000F0C7FA062000F0E8FA22460421C8
:100CD000282000F0BFFA282000F0E0FA09B0BDE8B3
:100CE000F08300BF0010024000080140000C0140EA
:100CF0000000111072B6FEE710B590B006AC2822C5
:100D00000021204603F0B6FC0023019302930393D5
:100D100004930593012206924FF4803307934FF416
:100D2000003108910A9202220D920E934FF4E013C3
:100D30000F93204600F056FD78B90F23019302214E
:100D40000291002303934FF480620492059301A85B
:100D500001F01CF818B910B010BDFFF7CBFFFFF77A
:100D6000C9FF08B500F0DAF9FFF7C6FFFFF740FF4B
:100D700000F028F800F026F9002002F0C3FD03F08F
:100D800041FA02F0B1FE02F0C5FE48F2DA0002F0CC
:100D90006AF848F2DA0002F06EF803F055F8FCE762
:100DA00000B5C1B002460B460549684603F0F8FBA2
:100DB000684603F037FD81B2684603F0B9F9FEE7F3
:100DC00030B1000808B50E480E4B03604FF4827333
:100DD000436000238360C360036143614FF400728A
:100DE00082612022C2610362436283620A23C3627A
:100DF00001F08EF900B908BDFFF77CFFFBE700BFEB
:100E0000140700200030014070B586B00023029323
:100E10000393049305930268174B9A4201D006B0DE
:100E200070BD03F560439A6942F480529A619A69F1
:100E300002F480520092009A9A6942F004029A6188
:100E40009B6903F004030193019BA02302930226F4
:100E500003960323059302AD084C2946204600F073
:100E6000C3FA4023029300230393049629462046A5
:100E700000F0BAFAD3E700BF00300140000801409B
:100E800082B00E4B9A6942F001029A619A6902F0AF
:100E900001020092009ADA6942F08052DA61DB695D
:100EA00003F080530193019B054A536823F0E063EC
:100EB00043F00073536002B0704700BF001002405F
:100EC00000000140FEE7FEE7FEE7FEE7FEE77047B1
:100ED0007047704708B500F033F908BD08B5012028
:100EE00000F05CFC08BD000008B5024801F0AAFD56
:100EF00008BD00BF7007002008B54FF4805000F017
:100F00004DFC08BD0120704708B503F055FC1623C1
:100F100003604FF0FF3008BD08B54FF0FF31FFF719
:100F2000F3FFFEE770B50C461646002506E0AFF36A
:100F30000080214601F8010B01350C46B542F6DB75
:100F4000304670BD70B50C461646002504E014F816
:100F5000010BAFF300800135B542F8DB304670BDC0
:100F60004FF0FF3070474FF400534B600020704744
:100F7000012070470020704710B503460C4A0D4908
:100F80000D48006840B10C4800680344521A93426F
:100F900006D8094A136010BD0748084C0460F2E700
:100FA00003F00AFC0C2303604FF0FF30F3E700BFAF
:100FB00000500020000400006C070020900C00206E
:100FC0007047000008B50A480A4B03604FF4E1334C
:100FD000436000238360C36003610C22426183612C
:100FE000C36101F0C9FB00B908BDFFF783FEFBE751
:100FF000700700200038014070B586B000230293CE
:1010000003930493059302681C4B9A4201D006B0E7
:1010100070BD03F558439A6942F480429A619A6917
:1010200002F480420092009A9A6942F004029A61A6
:101030009B6903F004030193019B4FF40073029337
:10104000022303930323059302AE0D4D3146284638
:1010500000F0CAF94FF480630293002403940494CF
:101060003146284600F0C0F922462146252000F0EE
:10107000F1F8252000F012F9C9E700BF003801405F
:1010800000080140FFF79CFF0B480C490C4A002365
:1010900002E0D458C4500433C4188C42F9D3094A2E
:1010A000094C002301E013600432A242FBD303F099
:1010B00089FBFFF756FE704700000020F406002071
:1010C00008BA0008F8060020900C0020FEE7000097
:1010D00010B504460E4B1A784FF47A73B3FBF2F353
:1010E0000C4A1068B0FBF3F000F0FCF868B90F2C64
:1010F00001D901200AE0002221464FF0FF3000F024
:10110000A9F8054B1C60002000E0012010BD00BFC5
:1011100004000020000000200800002008B5074A55
:10112000136843F010031360032000F075F80F20DC
:10113000FFF7CEFFFFF7A4FE002008BD002002400D
:10114000034A1168034B1B780B441360704700BFC0
:10115000B807002004000020014B1868704700BF4A
:10116000B807002038B50446FFF7F6FF0546B4F18E
:10117000FF3F02D0044B1B781C44FFF7EDFF401BE0
:10118000A042FAD338BD00BF0400002000280CDBC9
:1011900000F01F024009012393402030034A42F827
:1011A0002030BFF34F8FBFF36F8F704700E100E037
:1011B000002808DB0901C9B200F1604000F5614078
:1011C00080F80013704700F00F000901C9B2014B0D
:1011D0001954704714ED00E000B500F00700C0F1AD
:1011E000070CBCF1040F28BF4FF0040C031D062BA5
:1011F0000FD9C31E4FF0FF3E0EFA0CF021EA00019A
:1012000099400EFA03FE22EA0E0241EA02005DF85E
:1012100004FB0023EEE7000010B50446C31E042BB8
:101220000FD80A4AD36823F4E0631B041B0C240282
:1012300004F4E064234343F0BF6343F40033D3601A
:1012400010BD91210248FFF7ABFDEAE700ED00E099
:1012500060B1000870B506460C4615460F2A0ED838
:101260000F2C11D80B4BD8682A462146C0F3022018
:10127000FFF7B2FF01463046FFF79AFF70BDA92184
:101280000548FFF78DFDEBE7AA210348FFF788FD2E
:10129000E8E700BF00ED00E060B1000808B50028F5
:1012A00008DB00F01F02400901239340044A42F882
:1012B000203008BDBD210348FFF772FDF9E700BFEC
:1012C00000E100E060B1000810B5041E03DB204619
:1012D000FFF75CFF10BDCD210148FFF761FDF6E788
:1012E00060B100080138B0F1807F0BD24FF0E023ED
:1012F0005861054AF02182F82310002098610722E6
:101300001A6170470120704700ED00E0034690F835
:101310002120022A06D004228263002280F82020A5
:101320000120704701680A6822F00E020A60016815
:101330000A6822F001020A60026CC06B012101FA06
:1013400002F2426083F82110002083F820007047E9
:1013500008B590F82130022B03D0042383630120C9
:1013600008BD0268136823F00E0313600268136857
:1013700023F0010313600368194A934214D0143216
:1013800093421FD0143293421ED0143293421ED087
:10139000143293421ED01432934202D04FF0807226
:1013A00003E04FF4801200E001220E4B5A6001234B
:1013B00080F82130002380F82030436B6BB19847D0
:1013C0000020CDE71022F0E74FF48072EDE74FF4F4
:1013D0008052EAE74FF48032E7E70020C0E700BF21
:1013E00008000240000002402DE9F04383B00746A8
:1013F0000E46774B984213D003F5806398420FD086
:1014000003F5806398420BD003F58063984207D0C0
:1014100003F58063984203D0BD216E48FFF7C0FCFE
:1014200033689AB212B1B3F5803F03D3BE21694845
:10143000FFF7B6FC7368684A93421ED00ED8A2F537
:101440008012934219D005D8032B16D9113B012BDA
:1014500013D90EE0614A93420FD00AE0604A9342EA
:101460000BD002F58032934207D0A2F5801293424E
:1014700003D0BF215748FFF793FC4FF000094D46BA
:10148000E2E0584A934214D00CD8A2F5801293425D
:101490000FD002F5702293420BD0A2F58012934236
:1014A00054D106E04E4A934203D002F58032934273
:1014B0004CD1B368022B3BD8B368002B44D0012B2E
:1014C0003BD07C614FF0080940E0F368013B022B00
:1014D00002D8D6F80C9039E0D5213E48FFF760FCE1
:1014E000F7E7F368013B022B03D8F36803F1040923
:1014F0002CE0DC213748FFF753FCF6E7F368013BAB
:10150000022B03D8F36803F108091FE0E3213148F7
:10151000FFF746FCF6E7F368013B022B03D8F368BC
:1015200003F10C0912E0EA212A48FFF739FCF6E73B
:10153000F7212848FFF734FCBEE73C614FF008096B
:1015400004E04FF0000901E04FF00409B8F1FF0F8B
:1015500037D83846AA0003680F21914023EA0103D7
:1015600009FA02F213430360736813F0805F6AD0D4
:101570001D4B9A6942F001029A619B6903F00103D5
:101580000193019BAA08911C184B53F8210005F008
:10159000030189000F238B4020EA03000C4B9F427C
:1015A00026D003F580639F4200F0A08003F580639E
:1015B0009F4200F09D8003F580639F4206D0042384
:1015C00017E0381DA5F108029200C4E7032310E0DC
:1015D00000080140D4B100080000211000001210E2
:1015E00000003110000022100010024000000140F5
:1015F00000238B40034302324C4941F82230736888
:1016000013F4801F76D04A4A936843EA0803936034
:10161000736813F4001F73D0454AD36843EA080384
:10162000D360736813F4003F70D0414A536843EAB3
:1016300008035360736813F4803F6DD03C4A13680D
:1016400043EA080313600135336833FA05F269D0C1
:101650000124AC4003EA040834EA0303F3D1354B18
:101660009F4213D003F580639F420FD003F5806340
:101670009F420BD003F580639F4207D003F5806340
:101680009F4203D0CD212C48FFF78AFB7368122BB1
:101690003FF6F7AE122B3FF659AF01A252F823F0F6
:1016A000B3140008CB140008FD140008431500080B
:1016B0004D1500084D1500084D1500084D15000882
:1016C0004D1500084D1500084D1500084D15000872
:1016D0004D1500084D1500084D1500084D15000862
:1016E0004D150008E314000817150008012380E7D2
:1016F00002237EE70E4A936823EA0803936087E794
:101700000B4AD36823EA0803D3608AE7084A536880
:1017100023EA080353608DE7054A136823EA0803A8
:10172000136090E703B0BDE8F08300BF0000014004
:101730000004014000080140D4B1000838B5044657
:101740000D4621B1A3681D4207D0012038BD4FF4DA
:10175000DA710348FFF724FBF4E70020F6E700BF47
:10176000D4B1000870B5054614460E4621B1012CCF
:1017700008D86CB12E6170BD4FF4EA710648FFF7CE
:101780000FFBF4E740F2D5110348FFF709FBF0E740
:1017900036042E61EFE700BFD4B1000808B5054B51
:1017A0005B69034200D108BD024B586102F000F9A9
:1017B000F9E700BF0004014082B0084B1B68084AEB
:1017C000A2FB03235B0A00FB03F3019300BF019B11
:1017D0005A1E0192002BF9D102B070470000002080
:1017E000D34D6210002800F0898270B582B00446A3
:1017F000036813B113F00F0F2AD0236813F0010F01
:1018000040D063682BB1B3F5803F02D0B3F5A02F71
:1018100024D19C4B5B6803F00C03042B29D0994B1B
:101820005B6803F00C03082B1ED06368B3F5803FA0
:1018300055D0002B69D103F1804303F504331A68B6
:1018400022F480321A601A6822F480221A604BE077
:1018500040F265118C48FFF7A3FACEE740F26B1116
:101860008948FFF79DFAD4E7864B5B6813F4803F05
:10187000DBD0844B1B6813F4003F03D06368002B5C
:1018800000F03E82236813F0020F00F08980236984
:10189000012B63D863691F2B66D87A4B5B6813F002
:1018A0000C0F6CD0774B5B6803F00C03082B61D0F6
:1018B0002369002B00F09A80744B01221A60FFF715
:1018C0004BFC05466F4B1B6813F0020F40F0858000
:1018D000FFF742FC401B0228F4D9032015E2694AB5
:1018E000136843F480331360636843B3FFF734FC39
:1018F0000546644B1B6813F4003FC3D1FFF72CFC73
:10190000401B6428F5D90320FFE1B3F5A02F09D0CF
:101910005C4B1A6822F480321A601A6822F4802222
:101920001A60E1E703F18043A3F53C331A6842F4FF
:1019300080221A601A6842F480321A60D4E7FFF7F6
:101940000BFC05464F4B1B6813F4003F9AD0FFF782
:1019500003FC401B6428F5D90320D6E140F29F1117
:101960004948FFF71DFA95E74FF4D0714648FFF755
:1019700017FA92E7434B5B6813F4803F98D1414BD1
:101980001B6813F0020F03D02369012B40F0BA81CA
:101990003C4A136823F0F803616943EAC10313600A
:1019A000236813F0080F3CD0A369012B30D8A3693A
:1019B000002B6FD0354B0122C3F88024FFF7CCFBFE
:1019C0000546304B5B6A13F0020F27D1FFF7C4FBCB
:1019D000401B0228F5D9032097E12A4A136823F017
:1019E000F803616943EAC1031360D9E7274B00227A
:1019F0001A60FFF7B1FB0546224B1B6813F0020F7C
:101A0000CED0FFF7A9FB401B0228F5D903207CE1CB
:101A10004FF4F0711C48FFF7C3F9C8E70120FFF746
:101A2000CBFE236813F0040F00F0A480E368012BC1
:101A300001D9052B41D1134BDB6913F0805F42D1F3
:101A4000104BDA6942F08052DA61DB6903F08053AF
:101A50000193019B01250E4B1B6813F4807F34D04A
:101A6000E368012B45D0002B5BD103F1804303F5E4
:101A700004331A6A22F001021A621A6A22F004027E
:101A80001A623BE00010024048B2000800004242E7
:101A900000700040A14B0022C3F88024FFF75CFBDC
:101AA00005469F4B5B6A13F0020FBAD0FFF754FB59
:101AB000401B0228F5D9032027E140F20F21994865
:101AC000FFF76EF9B7E70025C5E7974A136843F4B7
:101AD00080731360FFF740FB0646934B1B6813F4BB
:101AE000807FBDD1FFF738FB801B6428F5D9032028
:101AF0000BE18B4A136A43F001031362E36833B3CB
:101B0000FFF72AFB0646864B1B6A13F0020F2FD104
:101B1000FFF722FB801B41F288339842F3D9032060
:101B2000F3E0052B09D07E4B1A6A22F001021A62FB
:101B30001A6A22F004021A62E0E7794B1A6A42F04C
:101B400004021A621A6A42F001021A62D6E7FFF72B
:101B500003FB0646724B1B6A13F0020F08D0FFF717
:101B6000FBFA801B41F288339842F3D90320CCE082
:101B7000002D53D1E369022B56D8E369002B00F006
:101B8000C380674A526802F00C02082A00F0A6805F
:101B9000022B40F08F80236A13B1B3F5803F49D107
:101BA000636A4BB3B3F5802F26D0B3F5002F23D053
:101BB000B3F5402F20D0B3F5801F1DD0B3F5A01F83
:101BC0001AD0B3F5C01F17D0B3F5E01F14D0B3F58A
:101BD000001F11D0B3F5101F0ED0B3F5201F0BD08E
:101BE000B3F5301F08D0B3F5401F05D0B3F5501F33
:101BF00002D0B3F5601F23D1484B00221A66FFF7CD
:101C0000ABFA0546464B1B6813F0007F1ED0FFF76A
:101C1000A3FA401B0228F5D9032076E0404AD36995
:101C200023F08053D361A5E740F2AD213D48FFF793
:101C3000B7F8A2E740F2B6213A48FFF7B1F8AFE7AC
:101C400040F2B7213748FFF7ABF8D5E7236AB3F581
:101C5000803F1AD032494B6823F47413226A606AB9
:101C6000024313434B602D4B01221A66FFF774FAAF
:101C700004462B4B1B6813F0007F19D1FFF76CFA59
:101C8000001B0228F5D903203FE0A36813B1B3F588
:101C9000003F07D1224A536823F40033A1680B4365
:101CA0005360D7E740F2CD211E48FFF779F8F1E7FE
:101CB00000202AE0194B00221A66FFF74DFA04466D
:101CC000174B1B6813F0007F06D0FFF745FA001B87
:101CD0000228F5D9032018E0002016E0012B16D0C9
:101CE0000F4B5B6803F48031226A914211D103F4F7
:101CF0007013626A93420ED1002006E00120704703
:101D0000012002E0012000E0002002B070BD0120AF
:101D1000FBE70120F9E70120F7E700BF000042429E
:101D20000010024048B2000800700040114B5B6890
:101D300003F00C02042A18D0082A18D1C3F38342F6
:101D40000D49885C13F4803F0BD00A4B5B68C3F3EA
:101D500040430A4AD35C0A4A02FB00F0B0FBF3F0AE
:101D60007047084B03FB00F0704705487047064872
:101D7000704700BF00100240ECB60008E8B600084B
:101D80000024F40000093D0000127A00002800F051
:101D9000FF8070B50D460446036813F00F0F35D071
:101DA000022D39D87E4B1B6803F00703AB420BD2E0
:101DB0007B4A136823F007032B431360136803F077
:101DC0000703AB4240F0E680236813F0020F3ED0D9
:101DD00013F0040F04D0734A536843F4E063536074
:101DE000236813F0080F04D06E4A536843F460531D
:101DF0005360A36823B3C02B22D016D8A02B1FD0CA
:101E000010D8802B1CD0902B1AD014E040F2363121
:101E10006548FEF7C5FFC3E740F237316248FEF779
:101E2000BFFFBFE7B02B0BD005E0E02B08D0F02BB5
:101E300006D0D02B04D040F25D315B48FEF7B0FFF6
:101E4000584A536823F0F003A1680B43536023689A
:101E500013F0010F3BD06368022B24D86368012B79
:101E600027D0022B2CD04F4A126812F0020F00F03C
:101E700093804C494A6822F0030213434B60FFF7FA
:101E80006BF90646474B5B6803F00C036268B3EBE3
:101E9000820F1CD0FFF760F9801B41F28833984213
:101EA000F0D9032067E04FF459713F48FEF778FFFF
:101EB000D4E73C4A126812F4003FDAD101205AE01C
:101EC000384A126812F0007FD3D1012053E0344B1E
:101ED0001B6803F00703AB420AD9314A136823F0A9
:101EE00007032B431360136803F00703AB4255D17C
:101EF000236813F0040F14D0E3685BB1B3F5806F6F
:101F000008D0B3F5A06F05D0B3F5C06F02D0B3F51C
:101F1000E06F31D1234A536823F4E063E1680B4357
:101F20005360236813F0080F15D023695BB1B3F534
:101F3000806F08D0B3F5A06F05D0B3F5C06F02D0A5
:101F4000B3F5E06F1ED1174A536823F4605321693B
:101F500043EAC1035360FFF7E9FE124B5B68C3F32A
:101F60000313124AD35CD840114B1860114B186808
:101F7000FFF7AEF8002070BD40F2A2310A48FEF72C
:101F80000FFFC7E740F2A9310748FEF709FFDAE77C
:101F9000012070470120EEE70120ECE70120EAE78D
:101FA000002002400010024048B20008D8B60008E5
:101FB0000000002008000020014B1868704700BF97
:101FC0000000002008B5FFF7F7FF044B5B68C3F380
:101FD0000223034AD35CD84008BD00BF0010024072
:101FE000D0B6000808B5FFF7E7FF044B5B68C3F302
:101FF000C223034AD35CD84008BD00BF0010024092
:10200000D0B600082DE9F04782B00546884617464D
:102010001E46FFF7A1F80A9B1B1A03EB0609FFF700
:102020009BF88246284B1B68C3F3CB3309FB03F3B1
:1020300001932B689C6838EA04040CBF0123002339
:10204000BB423DD0B6F1FF3FF3D0FFF785F8A0EBE0
:102050000A00484507D2019A02B14A46019B013B5A
:1020600001939146E5E72A68536823F0E003536043
:102070006B68B3F5827F0BD0AB6AB3F5005F14D009
:10208000012385F85130002385F85030032018E0F3
:10209000AB68B3F5004F02D0B3F5806FECD12A687E
:1020A000136823F040031360E6E72A68136823F4FB
:1020B000005313602A68136843F400531360DFE78A
:1020C000002002B0BDE8F0870000002070B582B0AB
:1020D00006460C46154600920B4601220221FFF7E8
:1020E00091FF48B900952346002280213046FFF732
:1020F00089FF38B902B070BD736D43F0200373657A
:102100000320F7E7736D43F0200373650320F1E7C5
:10211000002800F0188110B5044603688B4A9342EA
:1021200008D0A2F57842934204D04FF4AC718848AD
:10213000FEF736FE636813B1B3F5827F26D1A3683C
:102140002BB1B3F5806F02D0B3F5004F24D1E36813
:10215000B3F5006F00D02BBBA369B3F5007F03D0AC
:1021600013B1B3F5802F23D1E3699BB3182B25D886
:10217000082B05D3774A22FA03F313F0010F29D174
:1021800040F25D117248FEF70BFE23E040F2591158
:102190006F48FEF705FED2E74FF4AD716C48FEF7CD
:1021A000FFFDD4E740F25B116948FEF7F9FDD3E784
:1021B0004FF4AE716648FEF7F3FDD5E7382BDFD854
:1021C000202BDDD3203B4FF0013222FA03F313F032
:1021D000010FD5D0236A0BB1802B12D1636AB3B93A
:1021E000636A002B45D123690BB1022B15D16369BA
:1021F000012B18D86368B3F5827F1AD00023E361FE
:1022000058E04FF4AF715248FEF7CAFDE6E740F2DE
:1022100061114F48FEF7C4FDE2E74FF4B2714C483C
:10222000FEF7BEFDE3E740F265114948FEF7B8FD51
:10223000E0E7E369002B3DD0182B0DD8082B05D320
:10224000444A22FA03F313F0010F33D140F269112B
:102250003F48FEF7A5FD2DE0382BF7D8202BF5D30E
:10226000203B4FF0013222FA03F313F0010F21D18A
:10227000ECE7E369DBB1182B0DD8082B05D3354A01
:1022800022FA03F313F0010F11D140F27311304819
:10229000FEF786FD0BE0382BF7D8202BF5D3203B3B
:1022A0004FF0013222FA03F313F0010FEDD00023B7
:1022B000236163610023A36294F85130002B3CD06A
:1022C000022384F851302268136823F0400313601E
:1022D000636803F48273A26802F404421343E26861
:1022E00002F400621343226902F00202134362699E
:1022F00002F001021343A26902F400721343E2697F
:1023000002F038021343226A02F080021343A26AE9
:1023100002F40052216813430B60638B226803F0C0
:10232000040353602268D36923F40063D36100205F
:102330006065012384F8513010BD84F85030204688
:10234000FEF762FDBCE70120704700BF003001408E
:10235000B8B20008000101012DE9F04383B0044642
:10236000894690461D46836813B1B3F5004F4BD1A3
:10237000FEF7F2FE064694F85130DFB2012B40F032
:10238000D180B9F1000F00F0CE80B8F1000F00F05D
:10239000CA8094F85030012B00F0C980012384F8E2
:1023A0005030032384F8513000236365C4F8309023
:1023B000A4F83480A4F83680A363A387E38763641A
:1023C0002364A368B3F5004F24D023681A6812F081
:1023D000400F03D11A6842F040021A60E368B3F577
:1023E000006F22D0636813B1B8F1010F65D1226B81
:1023F000236812781A73236B01332363E38E9BB235
:10240000013B9BB2E38658E040F221314948FEF798
:10241000C7FCADE72268136823F04003136022680D
:10242000136843F480431360CFE7636813B1B8F1D6
:10243000010F15D1226B23681288DA60236B0233F7
:102440002363E38E9BB2013B9BB2E38608E0FEF779
:1024500083FE801BA84202D3B5F1FF3F15D1A5B181
:10246000E38E9BB2002B42D023689A6812F0020FD1
:10247000EDD0226B1288DA60236B02332363E38E84
:102480009BB2013B9BB2E386EAE7012384F851301B
:10249000002384F85030032745E0226B12781A732A
:1024A000236B01332363B4F836C01FFA8CFC0CF1A4
:1024B000FF3C1FFA8CFCA4F836C0E38E9BB2B3B18C
:1024C00023689A6812F0020FE7D1FEF745FE801BE1
:1024D000A84202D3B5F1FF3F01D1002DEDD1012378
:1024E00084F85130002384F8503003271BE0324633
:1024F00029462046FFF7EAFD08B120236365A3685B
:1025000033B901932368DA6801929B680193019BB8
:10251000012384F85130002384F85030636D13B9DF
:10252000002700E00227384603B0BDE8F083022709
:10253000F9E700BFB8B2000890F851007047026890
:1025400002F10C0353E8003F23F490730C3242E88D
:1025500000310029F3D1026802F1140353E8003F6F
:1025600023F00103143242E800310029F3D1036B58
:10257000012B05D0202380F84230002303637047ED
:10258000026802F10C0353E8003F23F010030C3201
:1025900042E800310029F3D1ECE790F84130212BDB
:1025A00001D0022070478368B3F5805F17D0036ABB
:1025B0005A1C02621A7803685A60C38C9BB2013BB2
:1025C0009BB2C3844BB90268D36823F08003D36005
:1025D0000268D36843F04003D3600020704703696A
:1025E000002BE4D1036A1B880268C3F3080353601D
:1025F000036A02330362E0E710B504464268384BD1
:102600009A4257D8E36813B1B3F5005F58D12369F4
:102610002BB1B3F5806F02D0B3F5C06F56D16369AB
:102620004FF6F372134200D123B940F678612D487A
:10263000FEF7B6FB2268136923F44053E1680B43AD
:102640001361A3682269134362691A432168CB6846
:1026500023F4B05323F00C031343CB602268536977
:1026600023F44073A1690B43536122681E4B9A42C5
:1026700032D0FFF7A7FC024602EB820202EB820295
:1026800063689B00B2FBF3F21848A0FB02314909D2
:10269000642303FB11231B013233A0FB03035B09FB
:1026A00003F0F00202EB011203F00F032168134460
:1026B0008B6010BD40F675610A48FEF771FBA1E71B
:1026C00040F676610748FEF76BFBA0E740F67761BE
:1026D0000448FEF765FBA2E7FFF784FC0246CBE760
:1026E00020AA440028B30008003801401F85EB51A0
:1026F0002DE9F04383B005460E4617469946DDF8AE
:1027000028802B681C6836EA04040CBF01240024CE
:10271000BC4228D1B8F1FF3FF3D0FEF71DFDA0EB7E
:102720000900404523D8B8F1000F22D02B68DA68A1
:1027300012F0040FE5D0802EE3D0402EE1D01A68CD
:1027400012F0080FDDD0002401941A6801925B6832
:102750000193019B2846FFF7F2FE08236B6485F87E
:102760004040012000E0002003B0BDE8F0830320DA
:10277000FAE70320F8E7000000286DD010B5044602
:1027800083690BB30368354A93420CD0A2F57442B7
:10279000934208D002F58062934204D04FF4B7719F
:1027A0002F48FEF7FDFAA369FBB1B3F5807F1CD07B
:1027B000B3F5007F19D0B3F5407F16D040F26F110A
:1027C0002748FEF7EDFA10E00368244A93420CD044
:1027D000A2F57442934208D002F58062934204D07D
:1027E00040F273111E48FEF7DBFAA36813B1B3F58C
:1027F000805F25D194F8413043B3242384F84130DD
:102800002268D36823F40053D3602046FFF7F4FE18
:102810002268136923F4904313612268536923F0FB
:102820002A0353612268D36843F40053D360002025
:102830006064202384F8413084F84230606310BD26
:1028400040F275110648FEF7ABFAD3E784F8403042
:102850002046FEF7D1FBD0E7012070470038014049
:1028600028B300082DE9F04182B01E4690F84130AF
:10287000202B56D104460D469046002955D00AB962
:1028800001204FE000234364212380F84130FEF70C
:1028900063FC0746A4F82480A4F82680A368B3F557
:1028A000805F02D04FF0000814E023692BB34FF093
:1028B00000080FE0202384F84130032032E038F88C
:1028C000023B2268C3F308035360E28C92B2013AE0
:1028D00092B2E284E38C9BB293B100963B46002215
:1028E00080212046FFF704FF0028E3D1002DE6D029
:1028F00015F8012B23685A60E7E7A8460025E9E7A9
:1029000000963B46002240212046FFF7F1FE18B911
:10291000202384F8413005E0202384F8413003204F
:1029200000E0022002B0BDE8F0810120FAE7704724
:1029300008B50168CA6822F04002CA60202280F807
:102940004120FFF7F4FF002008BD7047704708B52D
:10295000406A0023C385C384FFF7F8FF08BD7047B2
:1029600090F84230222B69D18368B3F5805F4FD055
:10297000826AB3F5805F04D0002B56D10369002B27
:1029800053D103685B681370836A01338362C38D1C
:102990009BB2013B9BB2C385002B51D100B583B0E4
:1029A0000268D36823F02003D3600268D36823F45D
:1029B0008073D3600268536923F0010353612023BD
:1029C00080F8423000234363036B012B33D1002393
:1029D0000363026802F10C0353E8003F23F0100385
:1029E0000C3242E800310029F3D103681A6812F072
:1029F000100F06D0002201921A6801925B680193C1
:102A0000019B818DFFF7ABFF002003B05DF804FB55
:102A10000269002AACD1826A03685B68C3F30803C9
:102A20001380836A02338362B1E703685B6803F053
:102A30007F031370A8E7FFF788FFE5E702207047E0
:102A40000020704710B582B0044602681368D06851
:102A5000516913F00F0F09D113F0200F0CD010F0B3
:102A6000200F09D02046FFF77BFF16E011F001018F
:102A700015D110F4907F12D1216B012979D013F078
:102A8000800F03D010F0800F40F0138113F0400F3F
:102A900003D010F0400F40F0108102B010BD13F0D1
:102AA000010F06D010F4807F03D0626C42F0010267
:102AB000626413F0040F04D019B1626C42F0020298
:102AC000626413F0020F04D019B1626C42F0040288
:102AD000626413F0080F07D010F0200F00D119B175
:102AE000626C42F008026264626C002AD5D013F076
:102AF000200F02D010F0200F29D123685B6903F06A
:102B00004003626C12F0080F00D163B32046FFF758
:102B100016FD23685B6913F0400F20D0226802F194
:102B2000140353E8003F23F04003143242E800311D
:102B30000029F3D1E36B73B1624A5A63E06BFEF78D
:102B400007FC0028A9D0E06B436B9847A5E7204617
:102B5000FFF706FFD1E72046FFF7F8FE9DE7204686
:102B6000FFF7F4FE99E72046FFF7F0FE00236364C9
:102B700093E713F0100F82D010F0100F3FF47FAFE7
:102B8000002301931368019353680193019B5369D8
:102B900013F0400F51D0E26B13685B689BB2002BBF
:102BA0003FF47BAFA18D99427FF677AFE3859369C0
:102BB000202B37D0226802F10C0353E8003F23F4A6
:102BC00080730C3242E800310029F3D1226802F10F
:102BD000140353E8003F23F00103143242E80031AC
:102BE0000029F3D1226802F1140353E8003F23F0D7
:102BF0004003143242E800310029F3D1202384F845
:102C0000423000232363226802F10C0353E8003FA3
:102C100023F010030C3242E800310029F3D1E06BBD
:102C2000FEF774FB02236363A18DE38D9BB2C91A87
:102C300089B22046FFF793FE2FE7A18DE38D9BB26B
:102C4000C91A89B2E38D9BB2002B3FF426AF00294D
:102C50003FF423AF226802F10C0353E8003F23F452
:102C600090730C3242E800300028F3D1226802F160
:102C7000140353E8003F23F00103143242E800300C
:102C80000028F3D1202384F84230002323632268F4
:102C900002F10C0353E8003F23F010030C3242E82A
:102CA00000300028F3D1022363632046FFF757FE6C
:102CB000F3E62046FFF771FCEFE62046FFF738FE0B
:102CC000EBE600BF4F29000890F8413090F8420031
:102CD0001843704700B583B051B960F07F008DF89C
:102CE0000400012001A900F017FD03B05DF804FB0A
:102CF0008C4660F03F008DF804007F2903D88DF8E2
:102D000005100220EEE761F07F018DF80510CCF38D
:102D1000C71C8DF806C00320E4E708B50B46114632
:102D20000244B2F5806F05DC821E0920FFF7D2FF56
:102D3000002008BD4FF0FF30FBE700B583B041B97C
:102D40008DF80400012001A900F018FD03B05DF822
:102D500004FB8C4640F040008DF804007F2903D826
:102D60008DF805100220EEE761F07F018DF8051067
:102D7000CCF3C71C8DF806C00320E4E708B5034672
:102D80008C46114662461120FFF7D7FF08BD08B5F3
:102D90000346052200211720FFF7CFFF08BD08B525
:102DA0000346052200211520FFF7C7FF08BD00B527
:102DB00083B001AB042289B280B2FFF7BEFF0323C8
:102DC000002007E003F108026A4412F8042C02EB29
:102DD0000020013B002BF5DA03B05DF804FB08B5D9
:102DE00000210846FFF7E3FF08BD00B583B001AB43
:102DF000022289B280B2FFF7A0FF9DF805309DF84E
:102E0000040000EB032080B203B05DF804FB00B5C2
:102E100083B00DF10703012289B280B2FFF78DFF65
:102E20009DF8070003B05DF804FB00B583B08DF892
:102E300007200DF10703012289B280B2FFF74AFF94
:102E400003B05DF804FB00B583B08DF80420120ACE
:102E50008DF8052001AB022289B280B2FFF73AFF5C
:102E600003B05DF804FB08B5024641F604012E20CC
:102E7000FFF7E9FF08BD08B5024600211820FFF75B
:102E8000E2FF08BD00B583B0002306E003F1080CA3
:102E9000EC440CF8042C120A0133032BF6DD01ABD1
:102EA000042289B280B2FFF715FF03B05DF804FB7E
:102EB00008B5064B1B68DB68184340EA815040EABE
:102EC000C23200210820FFF7DDFF08BD0C00002002
:102ED00008B5024604212D20FFF7B5FF0322062185
:102EE0002D20FFF7A2FF002206212D20FFF79DFFD6
:102EF0000A212D20FFF75BFF08BD08B50022022143
:102F00002C20FFF792FF022211462C20FFF78DFFA5
:102F100008BD10B504466D2240F606012E20FFF7CD
:102F200084FF3CB140F2076241F606012E20FFF714
:102F30008AFF10BD41F2076241F606012E20FFF71D
:102F400082FFF6E72DE9F041044605784279794B96
:102F500033F812704678013EF6B2042D00F0C580B9
:102F6000072D00F0BF804FF00008E379002B40F000
:102F7000BF80714B1A68136943F480031361FF0823
:102F80006D4B1968237A8B720A6922F440320A6108
:102F9000237A1B0403F440331A430A6100210420FE
:102FA000FFF770FF3A4642F604012E20FFF74BFF71
:102FB0003046FFF7AEFF614B5F5D614B53F8272052
:102FC00007212B20FFF75EFF5E4BDA5D0B212B20E4
:102FD000FFF72BFF5C4B13F808200B212820FFF78D
:102FE00024FF5A4B53F827200C212820FFF74AFFD3
:102FF000E279A37903EB4203554A32F81320022108
:103000002720FFF720FF534B33F8162004212720F9
:10301000FFF719FFE379002B71D0A378042B74D04C
:10302000202206212720FFF70EFF28222621272015
:10303000FFF7FBFEE37803EB8603474A52F82320B1
:1030400008212720FFF71EFF638913B941F24103CE
:103050006381628920212720FFF7F5FE3F4F3A6800
:103060000C212320FFF70EFF07EB4607BA88042147
:103070002320FFF7E8FEA279002A51D1114605F07E
:103080000F032D01EDB22B436078800400F4402043
:103090000343120502F4401213434A0402F40032BF
:1030A00013432279920502F0F8621343627943EAEE
:1030B000C26200211F20FFF7E5FEA3786278134368
:1030C000E27952031C49096842EA0342CA600021BE
:1030D0000820FFF7D7FE422200210D20FFF7A5FEB2
:1030E000BDE8F0814FF001083FE74FF001083CE7F1
:1030F000114B1A68136923F48003136140E76422BB
:1031000006212720FFF79FFE94E7102206212720A3
:10311000FFF799FE102226212720FFF786FE89E778
:10312000E3790F4AD25C00212120FFF77EFE0121C6
:103130000322A4E7FCB600080C000020A8B7000892
:1031400078B7000870B700086CB7000890B700089F
:1031500054B7000850B7000830B7000864B700083B
:1031600060B7000810B5044600211A20FFF71FFEC3
:103170006FF31300C4F3130444EA000200211A2081
:10318000FFF780FE10BD000038B510F0010F2AD007
:10319000044600212620FFF70AFE20F4705242F474
:1031A000A05200212620FFF76DFE00213620FFF7F8
:1031B000FEFD40F4040200213620FFF763FE14F008
:1031C00002040ED14FF488752A4628213620FFF7D5
:1031D00059FE94B105F4887228213620FFF752FE7B
:1031E0000BE0064DF0E700212620FFF7E0FD20F47C
:1031F000705200212620FFF745FE38BD10010F0058
:1032000010B582B0044601AB022200213620FFF740
:1032100094FD0E2C12D8DFE804F0200829111111BA
:1032200011324111114E555C650000238DF80430B8
:103230009DF8053003F0FE038DF8053001AB012247
:1032400000213620FFF746FD0DF10503012211464E
:103250003620FFF73FFD02B010BD9DF8043023F08B
:10326000030343F001038DF80430E7E79DF80430D1
:1032700023F0030343F002038DF80430DEE79DF8EA
:10328000043023F04C0343F048038DF804309DF8DC
:10329000053063F07F038DF80530CFE79DF80430EB
:1032A00003F0B3038DF804309DF8053003F07F037D
:1032B0008DF80530C2E79DF8053043F002038DF824
:1032C0000530BBE79DF8053003F0FD038DF80530B0
:1032D000B4E79DF8043023F0300343F020038DF869
:1032E0000430ABE701238DF8043003238DF805305B
:1032F000A4E708B50E20FFF783FF4FF40042062134
:103300002D20FFF7A0FD012000F002FA0120FFF7B9
:1033100077FF08BD08B50020FFF772FF00220421E7
:103320003620FFF790FD08BD08B5024601210A20AE
:10333000FFF7A8FD08BD000008B510F0020204D098
:10334000134B1B6801225A75802210F0010F16D012
:1033500042F0060200210D20FFF767FD03210F2038
:10336000FFF743FD10F4816F01D100200EE04022F1
:1033700000210D20FFF759FD4FF0FF3006E042F02D
:10338000020200210D20FFF750FD002008BD00BF04
:103390000C00002008B503210F20FFF738FD80EA5C
:1033A000400010F0800F00D108BD012203210D2044
:1033B000FFF73BFDF8E7000038B500210E20FFF7CE
:1033C000F6FC054600F094F90446002211460E2052
:1033D000FFF758FD402200210D20FFF726FD0A4A85
:1033E00000210F20FFF74EFDFFF7D4FF2A460021F2
:1033F0000E20FFF747FD204600F084F9034B1B68C1
:1034000000225A7538BD00BFF8FF27240C000020A9
:1034100038B5044610F0040F0BD014F001050BD1A1
:103420004FF4807200210D20FFF70DFD3DB92846B5
:1034300038BDFFF7AFFFF0E74FF44072F2E703212A
:103440000F20FFF7E4FC10F0080F01D10025EEE794
:10345000FFF7B2FF14F0020F02D04FF0FF35E6E79E
:103460004FF4807200210D20FFF7EDFCF5E700001E
:1034700038B5054603210420FFF7C9FC044695B181
:103480002A4600210C20FFF7DEFC44F010020C4B12
:1034900019680B6943F080530B61D2B203210420F9
:1034A000FFF7C3FC38BD064B1A68136923F080533D
:1034B000136100F0EF0203210420FFF7B6FCF1E7EF
:1034C0000C00002008B5E02203213620FFF7ADFCF8
:1034D000F02203213620FFF7A8FC08BD08B5FFF74E
:1034E00019FF002211462C20FFF7ADFC0022062117
:1034F0002C20FFF79AFCFFF700FD00220321362065
:10350000FFF793FC012000F003F9F022032136209D
:10351000FFF78BFC024B1B6800225A7508BD00BFE9
:103520000C00002008B500F01F0242F060020E21DE
:103530002B20FFF77AFC08BD70B504466A4B1B6868
:1035400000221A755A75DA829A62DA621A635A632D
:10355000FFF745FC654B984240F0C38014F002052C
:103560001BD014F0F80F02D10020FFF749FE04220F
:1035700000212420FFF759FCF5B90420FFF7A8FC2F
:1035800010F0FF0F0CD12DB304F00A030A2B21D049
:10359000554B1A680023D37225E0FFF79FFFE3E73E
:1035A000022212212D20FFF740FC4F4B1A68D38ACC
:1035B00043F48053D382E6E730212820FFF7F7FB5E
:1035C000B0F1883FDFD0484B1A68D38A43F4805368
:1035D000D382D8E71E20FFF77BFC83B2424A1268F1
:1035E000C0F30720D07235B913F01F0F00D110239C
:1035F000D8B2FFF797FF14F0100F40D13A4B1B6879
:1036000000221A6014F0200F40D1374B1B680022B3
:103610005A6014F0400F40D1334B1B6800221A72DD
:1036200014F0800F40D1304B1B6800225A72002DDD
:103630004DD114F0010F3ED0FFF75BFE2A4B1A6804
:10364000D38A43F40063D3820120FFF7D9FD00221F
:103650000A212C20FFF7E9FB234C256800210420D8
:10366000FFF7A5FB28612468638A03F00303A372B4
:1036700000210820FFF79BFBE060002070BD1A4B83
:103680001E680620FFF724FC3060BBE7164B1E685F
:103690000720FFF71DFC7060BBE70820FFF718FC50
:1036A000114B1B681872BBE70920FFF711FC0E4B8A
:1036B0001B685872BBE705213620FFF796FB20F404
:1036C000007292B205213620FFF7BDFBBCE714F073
:1036D000040FB9D1044B1A68D38A43F40063D38230
:1036E000B2E74FF0FF30C9E70C0000203001CADE1E
:1036F00010B500F093F9044608B9204610BD00F05B
:103700007FF9FAE700B9704708B500F080F908BD05
:1037100008B500F0A7F808BD2DE9F84381468846B2
:1037200016461F46FFF7E4FF05461248FEF704FF62
:1037300001280446F9D1002210210F48FEF712F8A3
:103740004A4641464FF0FF330A48FEF705FE4FF068
:10375000FF333946B2B20748FEF7FEFD224610217C
:103760000548FDF7FFFF2846FFF7CCFF0020BDE826
:10377000F88300BF14070020000801402DE9F04144
:1037800080460C4617461D46FFF7B2FF06461B480B
:10379000FEF7D2FE0128FAD1002210211848FDF7C9
:1037A000E1FFB8F1000F0AD0A04421464FF0FF33EB
:1037B000012212480134FEF7CFFD4445F5D18FB107
:1037C0004FF0000C0D4CE81921688A689207FCD56F
:1037D000C1F80CC08A68D307FCD5CB6805F8013B5B
:1037E000A842F1D1012210210548FDF7BBFF304668
:1037F000FFF788FF0020BDE8F08100BF140700201C
:103800000008014080B485B000AFC7E90001002185
:10381000F96012E00021B96004E000BF00BFB968A0
:103820000131B960B9680129D4BF01210021C9B2B1
:103830000029F2D1F9680131F960F968C8170A4620
:103840000346D7E90001824273EB010134BF012135
:103850000021C9B20029DDD1002318461437BD4626
:1038600080BC704780B582B000AF78607868FDF7A3
:1038700079FC00BF0837BD4680BD000080B483B02E
:1038800000AF78600A4A7B685B0952F823207B68A6
:1038900003F01F0322FA03F303F00103002B14BF0C
:1038A00001230023DBB218460C37BD4680BC7047AD
:1038B00000E100E080B584B000AF4FF480533B607E
:1038C00011237B600223FB603B4619460C48FDF741
:1038D0008BFD00224FF480510948FDF743FF4FF064
:1038E00001004FF00001FFF78DFF002000F00AF803
:1038F0000220FFF7B7FF00BF1037BD4680BD00BFF5
:10390000000C014080B586B000AF78607B68002B6A
:1039100015D04FF48053BB60174BFB6000233B6115
:1039200007F1080319461548FDF75EFD0620FDF76F
:10393000B5FC002205210620FDF78CFC17E00620CF
:10394000FDF7C2FC4FF48053BB601123FB600023E2
:103950003B6103237B6107F1080319460748FDF724
:1039600043FD01224FF480510448FDF7FBFE00BFE8
:103970001837BD4680BD00BF00001110000C01408B
:1039800080B500AF034B2022DA610248FEF7C0FB8E
:1039900000BF80BD1407002080B500AF034B082294
:1039A000DA610248FEF7B4FB00BF80BD14070020B7
:1039B00080B582B000AF0346FB80FB88B3F5805F23
:1039C00003D1064B01221A6004E0FB88012B01D1D0
:1039D00000F006F800BF0837BD4680BDF80700209C
:1039E00080B500AF02E0054B1B68984700F01EF859
:1039F0000346002BF7D100BF00BF80BDF4070020B5
:103A000080B500AF172000F02BF800BF80BD80B557
:103A100000AF172000F016F800BF80BD80B500AFE2
:103A20001720FFF72BFF0346184680BD80B500AF77
:103A300001210348FDF782FE0346184680BD00BF02
:103A4000000C0140002807DB00F01F0240090123A1
:103A50009340024A42F82030704700BF00E100E086
:103A600000280CDB00F01F024009012393402030A6
:103A7000034A42F82030BFF34F8FBFF36F8F704778
:103A800000E100E000B583B06846FFF780F9042349
:103A9000002001460AE0090241EA106103F1080230
:103AA0006A4412F8082C42EA0020013B002BF2DAAB
:103AB00003B05DF804FB00B583B06846FFF76FF90B
:103AC0000423002001460AE0090241EA106103F1E3
:103AD00008026A4412F8082C42EA0020013B002B3D
:103AE000F2DA03B05DF804FB08B5FFF7E3FEFFF779
:103AF00047FF0120FFF720FDB0F1FF3F03D0FFF7A4
:103B00004BFF012008BD1A21014800F011FBFEE720
:103B10009CB3000808B50448FFF714FA0120FFF72A
:103B200033FB012008BD00BF10000020F8B504469B
:103B300015461E460F46C1B3002D3BD0002E3ED188
:103B4000002C40D000210F20FFF731F910F4804302
:103B500017D110F4001F14D110F0806F11D110F4A0
:103B6000003F0ED110F4805F0BD110F4004F08D14C
:103B700010F4803F05D110F0005F02D110F4802FC7
:103B8000E0D03BB300211020FFF711F9C0F3090189
:103B9000296000223846FFF7F1F84FF480420021F7
:103BA0000F20FFF76FF90120F8BD74210E48FDF7D3
:103BB000F7F8C1E775210C48FDF7F2F8BEE7B0B29F
:103BC000FFF756FCBCE70020FFF722FC0028B9D025
:103BD0002046E9E7054A00210F20FFF753F9FFF7D8
:103BE00071FC0020E0E700BFB8B300080090272474
:103BF0002DE9F0410C4615461E469DF8187080468A
:103C000058B1012F0ED0A4B2002241462046FFF742
:103C100084F858B10020BDE8F081D4211548FDF7A3
:103C2000BFF8EEE73046FFF79DFAECE700221146B9
:103C30002046FFF73DF99DB90020012F15D0FFF771
:103C40007BFBA8B900210F20FFF7B1F810F0800F1F
:103C5000F8D0802200210F20FFF714F90120DAE7C5
:103C60002846FFF761FB0120E7E740F00200E6E7A6
:103C70000020D0E7B8B30008F8B50C46054618B1E7
:103C80000C2C06D00020F8BD60212248FDF788F8F2
:103C9000F6E705F10A0000F0E7FA0646A11E2846FD
:103CA00000F038FB0746284600F0DEFA00F02DFB56
:103CB000194C2080AB78A370E81C00F0D5FA00F016
:103CC00024FBA080681D00F0CFFAE080E81D00F022
:103CD000CBFA20816B7AA372304600F016FBA081EC
:103CE000228848F641039A420BD1A2884DF6CA6356
:103CF0009A4208D1A37A612B07D1B84207D101209B
:103D0000C1E70020BFE70020BDE70020BBE700209F
:103D1000B9E700BF10B4000848080020F8B50C4609
:103D2000054618B11C2C06D00020F8BDBA21284841
:103D3000FDF736F8F6E705F11A0000F095FA0646A9
:103D4000A11E284600F0E6FA0746284600F08CFA45
:103D500000F0DBFA1F4C2080AB78A370E81C00F069
:103D600083FA00F0D2FAA080681D00F07DFAE080AE
:103D7000E81D00F079FA20816B7AA37205F10A0040
:103D800000F081FAC4E9040105F1120000F07BFAA9
:103D9000C4E90601304600F0B8FA2084228848F6CB
:103DA00041039A420BD1A2884DF6CA639A4208D1C8
:103DB000A37A692B07D1B84207D10120B5E70020CB
:103DC000B3E70020B1E70020AFE70020ADE700BF78
:103DD00010B400080008002070B50E46054618B360
:103DE00046B3174C208800F090FA294600F05FFA9D
:103DF000A378AB70A08800F088FAE91C00F057FAAD
:103E0000691DE08800F053FAE91D208900F04FFA9F
:103E1000A37A6B7205F10A02D4E9040100F056FAA4
:103E200014233360012070BD40F22D110548FCF7CA
:103E3000B7FFD5E74FF497710248FCF7B1FFD0E721
:103E40002808002010B400082DE9F04FA9B0152172
:103E5000914800F06DF920252A46002120A800F0A5
:103E600009FC00241F942A46214617A800F002FCF2
:103E70001694234602E0022300E00323062B00F2FF
:103E8000FD8001A252F823F0A53E0008773E00080D
:103E90007B3E0008A93E0008D73E00082D3F0008E1
:103EA000794000080123E9E742F2107316AA17A926
:103EB0000020FFF73BFE03460028DFD0169917A825
:103EC000FFF7DAFE03460028D8D0FFF7F4FD83465B
:103ED0008A460423D2E7714B48F641021A80002239
:103EE0009A704DF6CA629A800125DD8002221A81FD
:103EF00050229A7200200021C3E9040120AC1FA9BE
:103F00002046FFF769FF664A1BEB02024AF10001F7
:103F1000120A0095642342EA01621F992046FFF7C6
:103F200067FE03460028A9D00523A7E742F21073D5
:103F300016AA17A90120FFF7F9FD034600289DD016
:103F4000169917A8FFF7EAFE0346002896D0FFF758
:103F500099FD06460F46FFF7AEFD04460D46DFF815
:103F60004481D8E90401FCF759FACDE90201A01B0C
:103F700065EB0701FCF752FA04460D46D8E9060145
:103F8000FCF74CFACDE90401B6EB0B0067EB0A0134
:103F9000FCF744FA8046894622462B46DDE90201B9
:103FA000FCF772FA06460F4642464B46DDE904012D
:103FB000FCF76AFA02460B4630463946FCF7ACF885
:103FC00006460F4622462B46DDE90201FCF7A6F81D
:103FD000DDE90423FCF7A2F842464B46FCF79EF8C5
:103FE00002460B4630463946FCF778FB00F0B2F942
:103FF000FCF71CFA22A3D3E90023FCF745FA22A31D
:10400000D3E90023FCF740FA06460F464022002180
:1040100006A800F02FFB244B1C78952C0DD8234DBF
:1040200032463B46D5E90001FCF778F8C5E90001C6
:1040300001341D4B1C70062320E71C4D14A3D3E94B
:104040000023D5E90001FCF749FB02460B4606AC0C
:104050001749204600F0A4FA204600F0E3FB81B2A5
:10406000204600F065F800220023C5E900230E4B2E
:1040700000221A70062301E70023FFE60023FDE675
:10408000FA48CE3B1835B13D0000001319DDB141AF
:104090000000000000C0624068B40008280800204A
:1040A000000094110008002060080020580800203B
:1040B00080B4000808B54FF48A720021024800F06D
:1040C000D9FA002008BD00BF64080020034610B1E3
:1040D000196000207047014BFAE700BF6408002018
:1040E00010B4044648B1C9B1D2B10878D0B1D4F8FF
:1040F0001001072803D9022015E00C4CF3E700EB70
:10410000400C04EB8C0CCCF8B410CCF8B020CCF8FC
:10411000B8300130C4F81001002004E0012002E0B2
:10412000012000E0012010BC704700BF640800209F
:1041300010B5E8B10A46014612B90424204610BD64
:1041400064230C48FEF78EFB04460A48FEF7BCFDCC
:104150002028FAD1032CF1D801A353F824F000BF92
:104160003D4100083D4100083D4100083D41000837
:104170000424E3E77007002010B5044600F052FB6A
:1041800081B22046FFF7D4FF10BD000008B50A4BEE
:104190001B7843B1084B00221A7011210748FFF722
:1041A000C7FF002008BD044B01221A7010210448EB
:1041B000FFF7BEFFF5E700BF7809002090B40008C4
:1041C000A4B4000808B504210448FFF7B1FF032197
:1041D0000348FFF7ADFF002008BD00BFB8B40008DA
:1041E000C0B4000808B510210248FFF7A1FF002065
:1041F00008BD00BFC4B40008014B00221A7070470C
:104200007809002008B5FFF7F7FF0020FFF752FFFD
:104210000B490020FFF75AFF0A4B0B4A0B490020BD
:10422000FFF75EFF0A4B0B4A0B490020FFF758FFD0
:104230000A4B0B4A0B490020FFF752FF08BD00BF95
:1042400079410008D8B400088D410008E8B400089E
:10425000F0B40008C541000800B5000808B5000822
:10426000E541000820B50008014650B1002318467A
:1042700004E0CA5C42EA002080B20133012BF8DD81
:10428000704700207047844670B1002318461946D5
:1042900007E0090241EA10611CF8032042EA00200D
:1042A0000133072BF5DD70470020014670478C462F
:1042B00059B10022082306E040FA03F10CF802107D
:1042C000083BDBB20132012AF6DD7047E2B130B5BE
:1042D00015464FF0000C382312E0C3F12004A3F17F
:1042E000200E20FA03F201FA04F4224321FA0EFE12
:1042F00042EA0E0205F80C20083BDBB20CF1010C7F
:10430000BCF1070FE9DD30BD7047030243EA10201E
:1043100080B27047D0B100B586464FF0000C6046C1
:104320000DE040080133072B07DC10F0010FF8D037
:1043300048F2084282EA5000F4E70CF1010C8C4587
:1043400006D21EF80C3058400023ECE700207047DE
:104350005DF804FB38B50022002304460D46FCF747
:1043600005FB28B920462946BDE8384000F00AB8C8
:10437000204605F1004100F005F8404261EB4101A3
:1043800038BD00BFD0B500220B4B06460F46FCF7E8
:104390007BF8FCF73BFB0446FBF7FCFF0022074BD6
:1043A000FCF772F802460B4630463946FBF7B4FE7E
:1043B000FCF72CFB2146D0BD0000F03D0000F04191
:1043C000024A0349034800F0C9B800BF1C0000209E
:1043D0007D730008300000200C4B416810B59942F5
:1043E000044601D002F0CAFFA168094B994202D0ED
:1043F000204602F0C3FFE168064B994204D02046F4
:10440000BDE8104002F0BABF10BD00BF7C0900201B
:10441000E40900204C0A00202DE9F843002504237C
:10442000304C314A3149DFF8C890DFF8C880324F4C
:10443000324E116004F15C0029460822C4E90335BC
:10444000C4E90055C4E90555A560656600F012F998
:1044500004F15800C4E90749C4E90987E66200F09D
:10446000D9F9274B2946082204F1C4006367C4E93F
:104470001A55C4E91E552567C4F8CC50C4F88050BD
:1044800000F0F8F804F1680304F1C000C4F88430C7
:10449000C4E92298C4E9247600F0BCF9194B2946F6
:1044A00004F596700822C4F8DC30C4E93455C4E938
:1044B0003855C4F8D850C4F83451C4F8E85000F066
:1044C000D9F804F1D003C4E93D87C4F8F09004F5AD
:1044D0009470C4F8FC60C4F8EC30BDE8F84300F018
:1044E00099B900BF7C090020B40A0020C14300082C
:1044F000E545000809460008494600086D460008E1
:10450000090001001200020010B504460A4800F03C
:1045100085F9636B23B9094B094A1B68626323B1B0
:10452000BDE81040044800F07BB9FFF775FFBDE817
:104530001040014800F074B9C40A0020B40A0020F9
:10454000D9430008014800F069B900BFC40A00203F
:10455000014800F065B900BFC40A00202DE9F84306
:104560004FF0000980460F461646D6E90154013D3A
:1045700010D4A389012B08D9B4F90E30013304D02B
:1045800021464046B84749EA0009013D6B1C04F149
:104590006804EED13668002EE7D14846BDE8F883BE
:1045A0000EB470B504466FF0004600259DB00B4A6E
:1045B00021AB0B49106853F8042B059102A9CDE9F2
:1045C0000134049607961B95069400F083FD029B28
:1045D0001D701DB0BDE8704003B07047280000207A
:1045E0000802FFFF10B50C46B1F90E1000F0B8F844
:1045F000002803DB236D0344236510BDA38923F446
:104600008053A38110BD00BF2DE9F0410C46B1F9E4
:104610000C101F46CB05054616460BD421F48051DD
:10462000A1813B4632462846B4F90E10BDE8F04160
:1046300000F0ACB8B4F90E100223002200F07AF8B2
:10464000B4F90C10EAE700BF10B50C46B1F90E1032
:1046500000F070F8B4F90C30421C0EBF23F4805304
:1046600043F480532065A38110BD00BFB1F90E1043
:1046700000F04EB8830730B546D08446841805E074
:10468000634603F8011B9D0703D09C46A445F7D160
:1046900030BD013A0244A2EB0C02032A29D9CCB264
:1046A00004EB04240F2A04EB04442FD9A2F1100CCC
:1046B0002CF00F0C03F11005AC44C3E90044C3E92E
:1046C000024410336345F8D112F00C0F02F00F0EC4
:1046D00018D01A462EF0030C9C44AEF1040542F8A3
:1046E000044B6245FBD125F0030404330EF00302B2
:1046F0002344002ACCD0C9B21A4403F8011B9342C8
:10470000FBD130BD7246F4E70346C6E79646E0E7C4
:10471000002238B5064D044608462A60FCF720FC06
:10472000431C00D038BD2B68002BFBD0236038BD64
:10473000B80A002038B50C46114600228446074DC1
:1047400020462A601A466446FCF714FC431C00D03D
:1047500038BD2B68002BFBD0236038BDB80A002081
:1047600038B50C46114600228446074D20462A6083
:104770001A466446FCF7D6FB431C00D038BD2B68B4
:10478000002BFBD0236038BDB80A002038B50C469A
:10479000114600228446074D20462A601A46644688
:1047A000FCF7D0FB431C00D038BD2B68002BFBD09E
:1047B000236038BDB80A0020014B1868704700BF5D
:1047C0002800002070B50F4B0F4DAB42A3EB050640
:1047D00007D00024B61055F8043B01349847A64290
:1047E000F9D806F097FC094D094B5E1BAB424FEA26
:1047F000A60606D0002455F8043B01349847A6428B
:10480000F9D870BDFCB90008FCB90008FCB9000873
:1048100004BA0008704700BF704700BF704700BF70
:10482000704700BF20F0030110F00300C0F100004A
:1048300051F8043B00F1040C4FEACC0C6FF000027D
:104840001CBF22FA0CF213434FF0010C4CEA0C2C63
:104850004CEA0C4CA3EB0C0222EA030212EACC1243
:1048600004BF51F8043B0430F4D0C2F1000102EA65
:104870000102B2FA82F2C2F11F0200EBD2007047CD
:10488000024B13B1024800F005B870470000000069
:1048900059760008002301461A46184602F074BFF4
:1048A0002DE9F84306460820894602F0E9FE054650
:1048B000DFF89880304600F001FCD8F808305F68D7
:1048C00027F00307A7F11104A4EB09042C44B4FB5F
:1048D000F5F4013C05FB04F4A54208DC0021304658
:1048E00002F0A8FED8F808303B44984205D0304684
:1048F00000F0EAFB0020BDE8F8833046614202F098
:1049000099FE01300FD0124AD8F808303F1B47F00B
:1049100001075F60136830461B1B136000F0D4FB77
:104920000120BDE8F8830021304602F083FED8F86C
:104930000820831A0F2BDADD43F001035360054B87
:1049400003491B68C01A0860D1E700BF800100203E
:10495000CC0A00207401002000295AD0F8B50C467A
:10496000074600F0ABFB54F804CC724DA4F10802EA
:104970002CF00103D118A8684E68884226F003067F
:104980000CF0010E7CD04E608819406800F00100E8
:10499000BEF1000F2ED154F8084C05F1080C121B83
:1049A00023449468644560D0D2F80CE0C4F80CE06D
:1049B000CEF8084000287DD043F0010050600B6025
:1049C000B3F5007F2ED25809D908012383406868C7
:1049D000013103436B6055F8310005EBC103083B1F
:1049E000C2E9020345F83120C2603846BDE8F8400C
:1049F00000F06ABB70B9334405F1080C886843F0D5
:104A0000010460456ED0C968C16088605460D350AD
:104A1000D6E770474CF00101B3F5007F44F8041C61
:104A2000D350D0D3B3F5206F4FEA532144D2990924
:104A300001F1390001F13804C100681869580838DB
:104A4000884203D155E08968884204D04C6824F03C
:104A500003049C42F7D8C868C2E902108260384655
:104A6000BDE8F840CA6000F02FBB80BB1E44D1E90E
:104A70000213CB60996046F0010353609651B4E78E
:104A80001E44BEF1000F07D154F8083CD21A1E4450
:104A9000D2E90213CB60996046F001035360264BC4
:104AA000AA601B68B342A0D8244B38461968FFF7A8
:104AB000F7FE9AE73344A1E714290DD954291FD8EA
:104AC000190B01F16F0001F16E04C100B5E743F06D
:104AD000010050600B6088E701F15C0001F15B04AC
:104AE000C100AAE7C5E90422C2E902CC5460D35050
:104AF0007BE70123A410A3406C6823436B60ABE702
:104B0000B1F5AA7F06D8D90B01F1780001F177043D
:104B1000C10092E740F25450814206D8990C01F14D
:104B20007D0001F17C04C10087E74FF47E717E2493
:104B300083E700BF8001002078010020FC0A0020EC
:104B40002DE9F04F01F10B05162D064683B024D850
:104B5000102900F2AE8000F0B1FA102518234FF0B2
:104B6000020CC04F3B445C68A3F10802944200F081
:104B70005F8130466368E268A16823F00303CA607E
:104B8000234491605A68083442F001025A6000F0F0
:104B90009BFA204603B0BDE8F08F35F0070500F121
:104BA0008880A94200F2858000F088FAB5F5FC7F84
:104BB000C0F0B1816B0A00F08380042B00F26E819B
:104BC000AB0903F1390C03F1380E4FEACC00A54FC5
:104BD000384444680838A04207D10DE0002AE16853
:104BE00080F22081884207D00C46636823F00303DB
:104BF0005A1B0F2AF2DDF446DFF86C823C6944450B
:104C000000F0FD80636823F00309A9EB05030F2B77
:104C100000F38681002BC7E9048880F27081B9F522
:104C2000007FD7F804E080F00A8101234FEAD90120
:104C30004FEA5919194403FA09F357F831204EEA9B
:104C4000030E07EBC103083BA260E360C7F804E072
:104C500047F83140D46001204FEAAC0398407045DA
:104C600035D810EA0E0F07D12CF0030C400010EAE3
:104C70000E0F0CF1040CF9D007EBCC0AD646E14636
:104C8000DEF80C300BE059681C4621F003014A1B8A
:104C90000F2ADB6800F30F81002A80F223819E45F2
:104CA000F1D109F1010919F0030F0EF1080EE7D156
:104CB00060E10C2333600024204603B0BDE8F08F90
:104CC0004FF400704FF0400C4FF03F0E7FE7BC6890
:104CD000636823F00309A94504D3A9EB05030F2B4F
:104CE00000F39080614B08201B6803F1100804EB6F
:104CF0000903009302F0C4FC5D4A83461368A8448C
:104D0000013305D008F1FF388044434203EA080824
:104D10004146304602F08EFCB0F1FF3F8246544AD5
:104D200000F0198104EB0903834200F21281514B18
:104D30000BF1FF3C18684044186000F0688111686E
:104D4000013100F0708104EB0902AAEB0202024477
:104D50001A601AF00702CDE9002300F02A81C2F19F
:104D600008029244D04408EA0C015A44521A02EA5A
:104D70000C0B5946304602F05DFC421C019B00F0D2
:104D80006F81A0EB0A0000EB0B08186848F00102E5
:104D90005844BC42C7F808A01860CAF8042017D0CD
:104DA000B9F10F0F40F242814FF0050C6168A9F193
:104DB0000C0222F0070201F00101114361600F2A89
:104DC00004EB0201C1E901CC00F25281DAF80420BF
:104DD0005446294B1968814238BF1860274B19681F
:104DE000814238BF186022F00308A845A8EB0503EC
:104DF00001D30F2B06DC304600F066F95BE7D7F8ED
:104E000004E028E7621943F0010345F001056560FD
:104E10003046BA600834536000F056F9204603B0BB
:104E2000BDE8F08FA2683046D16023448A60A9E6CD
:104E3000DC68A3427FF49DAE0CF1020CDCE6B9F510
:104E4000206F4FEA59227DD3142A00F2C58002F167
:104E50005C03DB005B32F918FB580839994212D128
:104E60009EE000BF8001002088010020FC0A002095
:104E700074010020CC0A0020F80A0020F40A002067
:104E80009B68994204D05A6822F003024A45F7D839
:104E9000D968C4E902318C60DC60DCE6142B5DD992
:104EA000542B00F2A2802B0B03F16F0C03F16E0E5A
:104EB0004FEACC008BE6D4F808C03046661945F0BE
:104EC00001056560CCF80C30C3F808C042F001035E
:104ED000C7E90466C6E902887360625000F0F4F81E
:104EE0000834E9E621444A68304642F001024A604B
:104EF00054F8082FD3609A6000F0E6F8DCE6A1448D
:104F0000D9F80430304643F00103C9F8043000F00A
:104F1000DBF80834D0E64FEAD50C05F1080320E6AB
:104F2000621943F0010145F0010565603046C7E9AB
:104F30000422C2E90288516044F8093000F0C4F844
:104F40000834B9E64FEA991202F13903DB0038322E
:104F500081E7BC4254D0BC68626844E703F15C0C52
:104F600003F15B0E4FEACC0031E65AF8083953459D
:104F700040F09F801CF0030F0CF1FF3CF5D17B68E3
:104F800023EA00037B60400098423FF6A0AE18B9C8
:104F90009DE6400009F104091842FAD0CC466BE6C0
:104FA0000120921000FA02F24EEA020EC7F804E065
:104FB0006FE70AEB080202EA0C02ABEB020202EA1C
:104FC0000C0B5946304602F035FB431C019B7FF425
:104FD000D8AEDDF800B0D8E6542A2BD84FEA193203
:104FE00002F16F03DB006E3235E7B3F5AA7F2BD8F1
:104FF000EB0B03F1780C03F1770E4FEACC00E6E5FA
:105000002D4B0BF1FF3C18684044186097E61AEAF4
:105010000C0F7FF494AED7F808A0C84448F0010202
:10502000CAF80420D4E6C2F800A092E60123CAF828
:105030000430E0E6B2F5AA7F25D84FEAD93202F172
:105040007803DB00773206E740F25452934225D8CA
:10505000AB0C03F17D0C03F17C0E4FEACC00B6E5FE
:10506000009A4FF0000B083A9044A8EB0A088CE62F
:10507000304604F108010093FFF76EFC009BD7F85F
:1050800008A01868A2E640F254539A420DD84FEA9D
:10509000994202F17D03DB007C32DCE64FF47E7046
:1050A0004FF07F0C4FF07E0E91E54FF47E737E2221
:1050B000D1E67B6867E700BFCC0A00200148FFF714
:1050C000ADBB00BFBC0A00200148FFF7A9BB00BF71
:1050D000BC0A00202DE9F04FDBB00C4615460A91C2
:1050E0000E93834602F0A2FA036818461793FFF75F
:1050F00099FB0822169000212AA8FFF7BBFAA38982
:105100001B0603D52369002B01F0A980002300248E
:105110009E46CDE92F33002331AACDE912342F4624
:105120001446CDE91AEE2E92CDF860E0CDF864E099
:10513000CDF820E0CDF844E03D466E4BD3F8E46076
:1051400002F06EFA0DF1A80C03462A46584626A92D
:10515000CDF800C0B047002800F09F80C0F29580D5
:10516000269B252B01D00544E7E7B5EB070806464B
:1051700040F0978000224FF0FF33924607930135AD
:105180002B788DF88F20099299460135A9F12003DB
:105190005A2B00F2B180DFE813F03A02AF00AF0003
:1051A0003602AF00AF00AF001902AF00AF006A00D7
:1051B000F301AF00EF01FC01AF00F8015B005B0001
:1051C0005B005B005B005B005B005B005B00AF00B3
:1051D000AF00AF00AF00AF00AF00AF002301AF00E2
:1051E0007901F702230123012301AF00AF00AF00D3
:1051F000AF00F302AF00AF004402AF00AF00AF005A
:10520000B601AF009902AF00AF00B707AF00AF0023
:10521000AF00AF00AF00AF00AF00AF002301AF00A1
:10522000790164012301230123011803640174003F
:10523000AF003103AF00220366033B037400AF00ED
:10524000B6017200D202AF00AF002908AF007200B1
:105250000022A9F1300315F8019B02EB820203EB57
:105260004202A9F13003092BF5D909928EE70E9B72
:1052700053F8042B002A09920E93C0F27A812B78FE
:1052800082E72B784AF0200A7EE7082200212AA82C
:10529000FFF7F0F9012005444FE7B5EB0708064694
:1052A00010D02F9A309B01324344072AC4E900787A
:1052B00030932F9215DC0834089B43440893002E4A
:1052C0007FF458AF309B002B41F058830A9B9B8999
:1052D00003F04003002B41F0F08708985BB0BDE875
:1052E000F08F58460A992EAA02F01CF80028EDD13A
:1052F00031ACE1E788050020B9F1000FE2D00023CE
:1053000001228DF804910C9241AF8DF88F300B93F0
:10531000CDE90623CDE90F331493309E1AF08403B0
:10532000314600F0E2809DF88F20FAB14FF000087E
:105330002F98012201300136626007280DF18F029B
:10534000CDE92F06226000F3FB830834B8F1000F8B
:105350000CD02F980222013002366260072824AA5E
:10536000CDE92F06226000F3DF830834802B00F0A4
:10537000E482079B0C9AA3EB0208B8F1000F00F33C
:1053800024831AF4807F40F081820C9B27601E44A6
:1053900063602F9B30960133072B2F9300F36D83AF
:1053A00008341AF0040F05D0099B069A9F1A002FA3
:1053B00000F3D483DDE9083206998A42ACBF9B181A
:1053C0005B180893002E40F0388300232F930B9B2B
:1053D0001BB158460B99FFF7BFFA2F4631ACABE62D
:1053E0000E9B073323F00701F1E80223CDE91223D6
:1053F000139B1E9223F000431F930E914FF0FF3238
:10540000DDE91E01AE4BFBF797FB002840F021863B
:10541000DDE91E014FF0FF32A94BFBF7B1FA06465A
:10542000002840F01686DDE91201002200232AF050
:10543000800AFBF79BFA002841F04B819DF88F30E2
:10544000B9F1470FCCBF9F4F9F4F002B41F02186F2
:105450000322CDE90F330B930C920793149306921A
:105460005BE71AF0200F40F0A5850E9A1AF0100F96
:1054700052F8046B41F026871AF0400F0E9201F0AB
:105480001C8146F3C038434636B28EE10E9BB9F11B
:10549000430F03F1040603D01AF0100F00F0B88692
:1054A000082200212CA8FFF7E5F80E9A41AF2CAB9B
:1054B00039465846126803F051FE034601330C90FA
:1054C00001F0F6860C9B23EAE373069300230E9605
:1054D000309ECDE90F338DF88F300B9307931493E3
:1054E0001AF0840331467FF41EAF099A0698A2EBA6
:1054F0000008B8F1000F00F32B849DF88F20002ADC
:105500003FF437AF12E70023DDF838808DF88F3095
:1055100058F8047B002F00F09186B9F1530F01F089
:1055200012801AF010030F9341F00D80079B002B9F
:10553000C1F236821A4638460F9902F0AFF89DF84C
:105540008F300B90002801F08F850B9ACDF83880B2
:10555000D21B0C9222EAE272069213B11346013377
:1055600006930F9B4FF073090793149310930B93BB
:10557000D3E6099B5B4209932B784AF0040A03E6C1
:105580002B238DF88F302B78FEE52B784AF0800A9C
:10559000FAE5294611F8019BB9F12A0F01F0758649
:1055A000A9F13003092B98BF002201F22C8411F8D5
:1055B000019B02EB820203EB4202A9F13003092BAB
:1055C000F5D942EAE2730D460793DFE5584602F04B
:1055D0002DF8436818461993FFF724F91B900646E7
:1055E000584602F023F881682B781A91002E3FF478
:1055F000CBAD00293FF4C8AD0A78002A3FF4C4AD12
:105600004AF4806AC0E52B784AF0010ABCE59DF8AF
:105610008F202B78002A7FF4B7AD20228DF88F20C1
:10562000B2E51AF0200F4AF0100000F0BB840E9B88
:10563000073323F007031A46596852F8083B0E92C5
:1056400000228DF88F20079A002A18DB53EA010206
:1056500020F4906A15D1079A9AB910F001031A46FE
:10566000069300F04B8730238DF86731079B0C922F
:10567000CDE90F3314930B930DF267174DE620F429
:10568000806A5AAF03F00702DB0843EA4173C90896
:10569000303253EA0106384607F8012DF2D11AF0EC
:1056A00001010F9140F02383079A5AABDB1B9A420A
:1056B000B8BF1A460C930692149110910B912CE6E8
:1056C000FFFFEF7F2CB5000828B500081AF0200F67
:1056D0004AF0100138D10E9B1A1D4FF000080E9BA6
:1056E00007981B6840451E468DF88F80C0F2808564
:1056F00021F0800A002B00F089840E920A2E78F1A6
:10570000000380F0B78306F13003DBB28DF8673118
:10571000079B0DF26717012BB8BF012306930123E6
:105720000C939DF88F30002B01F0A985069B013367
:1057300006930023CDE90F330B931493EDE51AF094
:10574000200F00F04C8451460E9B073323F00703D3
:105750001A46D3F8048000238DF88F30079B52F847
:10576000086B002B0E92C0F2448556EA080321F024
:10577000800AC3D1079B002B00F04D840026C2E7AE
:105780002B784AF0080AFFE41AF0200F4AF01001C3
:1057900000F01A840E9B8A46073323F007031A464B
:1057A0005B6852F8086B98460E92002BC0F251834A
:1057B000079A002AA2DB56EA08032AF0800A9DD144
:1057C000002A01F059803023A0E72B78682B03BF13
:1057D0006B784AF4007A01354AF0400AD4E40E9A14
:1057E0001AF0200F02F1040300F01E8412680899D9
:1057F0001160C91751602F460E939DE42B786C2BD6
:1058000003BF6B784AF0200A01354AF0100ABBE466
:10581000002647F630030E9A079F52F8041BB74242
:10582000ADF890308DF88F600B46C0F2E5842AF019
:10583000800040F0020A002940F0D586002F01F0D8
:10584000228030238DF86731012306974FF07809C5
:105850008C46CDE90B1310910E9214910F910DF21D
:10586000671700F0A6BC1AF0200F40F0EF830E9AE5
:105870001AF0100152F8043B41F02A851AF040005A
:1058800000F00B8750460E929BB2D9E6B9F1650F36
:1058900040F3FD80DDE9120100220023FBF75CF8F4
:1058A000002800F0A081012363602F9BB24A0133DE
:1058B0000136072B30962F93226000F33886083488
:1058C000259B119A934280F26483169B179A1E447B
:1058D000C4E900232F9B30960133072B2F9300F34D
:1058E000A1840834119B5F1E002F7FF75AAD102F43
:1058F0002F9B41F35384A14932464FF010080E46C6
:10590000DDF82890159104E00834103F102F40F383
:10591000A98001331032072BC4E90068CDE92F328A
:10592000F2DD494658462EAA01F0FCFC002840F062
:105930008C80DDE92F3231ACE7E7099B069AA3EBB7
:105940000208B8F1000F7FF714ADB8F1100F2F9ACD
:1059500041F32C83DFF824C22146304610232E4623
:1059600064460A9DCDF854C006E0A8F11008B8F1CD
:10597000100F01F1080118DD01321030072AC1E9CA
:105980000043CDE92F20F0DD294658462EAA01F02C
:10599000C9FC002859D1DDE92F20A8F11008B8F181
:1059A000100F4FF0100331A9E6DC35460C460646D1
:1059B0000132159B4644072ACDE92F262360C4F8FF
:1059C000048000F3FE850834D3E46C4BB8F1100F6B
:1059D0002F9A159324DD214610230A9C06E0A8F196
:1059E0001008B8F1100F01F1080118DD0132634809
:1059F0001036072AC1E90003CDE92F26EFDD214645
:105A000058462EAA01F08EFCF8B9DDE92F26A8F140
:105A10001008B8F1100F4FF0100331A9E6DC0C4666
:105A20000132159B4644072ACDE92F262360C4F88E
:105A3000048000F302820834A3E458460A992EAA8F
:105A400001F070FC00283FF4C0AC0B9B002B3FF42E
:105A50003DAC58460B99FEF77FFF0A9B9B8903F0EC
:105A6000400337E41646159A01333E44072B226063
:105A70006760CDE92F367FF793AC58460A992EAA76
:105A800001F050FC0028E0D1309E31AC89E42F9B1E
:105A9000013603F10108119B04F10809012B40F3C1
:105AA0003D810123B8F1070FCDE92F8627606360A0
:105AB00000F36282169B08F10108179A1E44B8F1A0
:105AC000070FC9E90023CDE92F8600F3488209F1C9
:105AD0000809119B0022DDE912015C1E0023FAF780
