:020000040800F2
:10000000005000200908000805070008070700083D
:10001000090700080B0700080D0700080000000092
:100020000000000000000000000000000F070008B2
:10003000110700080000000013070008150700085A
:10004000510800085108000851080008510800082C
:1000500051080008510800081D0700085108000851
:10006000510800085108000851080008510800080C
:1000700051080008510800085108000851080008FC
:1000800051080008510800085108000851080008EC
:1000900051080008510800085108000851080008DC
:1000A00051080008510800085108000851080008CC
:1000B00051080008510800085108000851080008BC
:1000C00051080008510800085108000851080008AC
:1000D00051080008290700085108000851080008C5
:1000E0003907000851080008510800080000000006
:1000F0000000000000000000000000000000000000
:0C01000000000000000000005FF808F1A3
:10010C000348044B834202D0034B03B1184770479A
:10011C002000002020000020000000000548064BB5
:10012C001B1AD90F01EBA301491002D0034B03B1E9
:10013C00184770472000002020000020000000001D
:10014C0010B5064C237843B9FFF7DAFF044B13B113
:10015C000448AFF300800123237010BD2000002061
:10016C0000000000F834000808B5054B1BB1054928
:10017C000548AFF30080BDE80840FFF7CFBF00BFD4
:10018C000000000024000020F83400082DE9F043A2
:10019C0089B004AD00240494059406940794384B5C
:1001AC009A6942F020029A619A6902F02002019247
:1001BC00019A9A6942F004029A619A6902F0040267
:1001CC000292029A9A6942F008029A619B6903F0C2
:1001DC0008030393039BDFF8AC80224606214046BC
:1001EC0000F09DFD01221021404600F098FD264EA6
:1001FC0001224FF40051304600F091FD1623049378
:10020C004FF00109CDF8149006940327079729465F
:10021C00404600F073FCCDF81090DFF87080CDF8FC
:10022C001480022306932946304600F067FC4FF4F5
:10023C0080530493CDF8148006942946304600F080
:10024C005DFC4FF400530493112305930694079718
:10025C002946304600F052FC22463946062000F072
:10026C00A9FB062000F0B6FB22460421282000F052
:10027C00A1FB282000F0AEFB09B0BDE8F08300BF65
:10028C000010024000080140000C01400000111059
:10029C0008B50B480B4B03600B4B4360002383608A
:1002AC00C3604FF48042026143618361C3610362A6
:1002BC0000F0DCFE00B908BD00F044F9FBE700BF1C
:1002CC003C00002000540040A086010010B586B010
:1002DC00002302930393049305930268114B9A42F3
:1002EC0001D006B010BD104CA36943F00803A36104
:1002FC00A36903F008030093009BC023029312230D
:10030C0003930323059302A9084800F0F7FBE36964
:10031C0043F40013E361E36903F400130193019BBD
:10032C00DFE700BF0054004000100240000C014009
:10033C0030B585B0054600240F4B9C4209D84FF0D0
:10034C00FF3301224E210D4801F028F808B1013489
:10035C00F2E70B4B5B782B438DF80C304FF0FF33EF
:10036C000093012303AA4E21044800F05DFF00B165
:10037C00012005B030BD00BF9F8601003C0000206D
:10038C009000002038B5044640F00400FFF7D0FF81
:10039C000546012000F0A2FA04F0FB00FFF7C8FFAD
:1003AC000446012000F09AFA05B12C46204638BDCF
:1003BC0038B50546FFF7BCFF04462846FFF7E2FFB9
:1003CC0004B1204638BD70B505460C4620F00F0030
:1003DC000843FFF7EDFF064644EA0514E0B2FFF7C9
:1003EC00E7FF06B1304670BD08B50021FFF7EBFF03
:1003FC0008BD08B50121FFF7E6FF08BD10B5084B95
:10040C001B78012B02D00124204610BD0120FFF7E0
:10041C00EBFF04460028F7D1022000F05FFAF3E767
:10042C009000002010B5084B1B78012B02D0012442
:10043C00204610BD0220FFF7D7FF04460028F7D155
:10044C00022000F04BFAF3E79000002008B53220B0
:10045C0000F044FA0020FFF76BFF01283AD001208E
:10046C0000F03CFA3020FFF7A3FF012832D0052022
:10047C0000F034FA3020FFF79BFF01282AD005202A
:10048C0000F02CFA3020FFF793FF012822D0012036
:10049C0000F024FA2020FFF78BFF01281AD0282027
:1004AC00FFF7A2FF012815D00B4B587940F008003C
:1004BC00FFF79AFF01280DD0FFF7A0FF012809D004
:1004CC00054B987940F00400FFF78EFF012801D00E
:1004DC00FFF7A8FF002008BD9000002008B50128F8
:1004EC0014D00D484FF0000C80F801C00A48817000
:1004FC00C2700371042343710223837101230370BF
:10050C00282000F0EBF9FFF7A1FF08BD02484FF0DF
:10051C00080C80F801C0E9E79000002010B5084BEA
:10052C001B78012B02D00124204610BDFFF761FF80
:10053C0004460028F8D1022000F0D0F9F4E700BFFF
:10054C009000002072B6FEE710B590B006AC2822E1
:10055C000021204602F0BEFE002301930293039378
:10056C0004930593012206924FF4803307934FF4C2
:10057C00003108910A9202220D920E934FF4E0136F
:10058C000F93204600F0E6FF78B90F230193022168
:10059C000291002303934FF480620492059301A807
:1005AC0001F010FA18B910B010BDFFF7CBFFFFF730
:1005BC00C9FF08B500F06EF9FFF7C6FFFFF7E6FDBF
:1005CC0000F01AF800F0BAF8FFF762FE002002F013
:1005DC00C5FC02F04DFE02F081FD02F095FD1023EA
:1005EC00282202210120FFF779FF4820FFF796FF10
:1005FC004820FFF793FFFBE708B50E480E4B03604E
:10060C004FF48273436000238360C36003614361D2
:10061C004FF4007282612022C261036243628362E2
:10062C000A23C36201F030FB00B908BDFFF78AFF53
:10063C00FBE700BF980000200030014070B586B089
:10064C00002302930393049305930268174B9A4279
:10065C0001D006B070BD03F560439A6942F4805234
:10066C009A619A6902F480520092009A9A6942F057
:10067C0004029A619B6903F004030193019BA0237C
:10068C000293022603960323059302AD084C2946D8
:10069C00204600F033FA4023029300230393049680
:1006AC002946204600F02AFAD3E700BF003001406B
:1006BC000008014082B00E4B9A6942F001029A6127
:1006CC009A6902F001020092009ADA6942F08052B3
:1006DC00DA61DB6903F080530193019B054A53688F
:1006EC0023F0E06343F00073536002B0704700BF27
:1006FC000010024000000140FEE7FEE7FEE7FEE7C7
:10070C00FEE770477047704708B500F0D5F808BD94
:10071C0008B5012000F00AFB08BD000008B502482E
:10072C0001F0FEFD08BD00BFF000002008B54FF43D
:10073C00805000F0FBFA08BD7047000008B50A486D
:10074C000A4B03604FF4E133436000238360C360C2
:10075C0003610C2242618361C36101F0C0FC00B9EA
:10076C0008BDFFF7EFFEFBE7F0000020003801406A
:10077C0070B586B00023029303930493059302682B
:10078C001C4B9A4201D006B070BD03F558439A69D0
:10079C0042F480429A619A6902F480420092009A73
:1007AC009A6942F004029A619B6903F00403019375
:1007BC00019B4FF4007302930223039303230593CD
:1007CC0002AE0D4D3146284600F098F94FF4806387
:1007DC0002930024039404943146284600F08EF9C9
:1007EC0022462146252000F0E5F8252000F0F2F8FD
:1007FC00C9E700BF0038014000080140FFF79CFF2B
:10080C000B480C490C4A002302E0D458C450043362
:10081C00C4188C42F9D3094A094C002301E0136037
:10082C000432A242FBD302F0A3FDFFF7C2FE7047D5
:10083C000000002020000020B0360008200000201E
:10084C002C040020FEE7000010B504460E4B1A786D
:10085C004FF47A73B3FBF2F30C4A1068B0FBF3F06D
:10086C0000F0CAF868B90F2C01D901200AE0002267
:10087C0021464FF0FF3000F09DF8054B1C60002026
:10088C0000E0012010BD00BF04000020000000208B
:10089C000800002008B5074A136843F010031360E2
:1008AC00032000F075F80F20FFF7CEFFFFF702FFD3
:1008BC00002008BD00200240034A1168034B1B783E
:1008CC000B441360704700BF380100200400002067
:1008DC00014B1868704700BF3801002038B504463A
:1008EC00FFF7F6FF0546B4F1FF3F02D0044B1B782F
:1008FC001C44FFF7EDFF401BA042FAD338BD00BFEC
:10090C000400002000280CDB00F01F02400901232A
:10091C0093402030034A42F82030BFF34F8FBFF38F
:10092C006F8F704700E100E0002808DB0901C9B2B5
:10093C0000F1604000F5614080F80013704700F052
:10094C000F000901C9B2014B1954704714ED00E0B6
:10095C0000B500F00700C0F1070CBCF1040F28BF74
:10096C004FF0040C031D062B0FD9C31E4FF0FF3E96
:10097C000EFA0CF021EA000199400EFA03FE22EA6D
:10098C000E0241EA02005DF804FB0023EEE70000D2
:10099C00074AD36823F4E0631B041B0C000200F429
:1009AC00E060034343F0BF6343F40033D36070470C
:1009BC0000ED00E010B50446054BD868C0F30220EA
:1009CC00FFF7C6FF01462046FFF7AEFF10BD00BF84
:1009DC0000ED00E0002807DB00F01F0240090123B6
:1009EC009340024A42F82030704700BF00E100E01B
:1009FC0008B5FFF787FF08BD0138B0F1807F0BD237
:100A0C004FF0E0235861054AF02182F823100020B2
:100A1C00986107221A6170470120704700ED00E0D1
:100A2C00034690F82120022A06D004228263002279
:100A3C0080F820200120704701680A6822F00E021D
:100A4C000A6001680A6822F001020A60026CC06B3D
:100A5C00012101FA02F2426083F82110002083F890
:100A6C002000704708B590F82130022B03D00423E6
:100A7C008363012008BD0268136823F00E03136022
:100A8C000268136823F0010313600368194A934248
:100A9C0014D0143293421FD0143293421ED014320D
:100AAC0093421ED0143293421ED01432934202D081
:100ABC004FF0807203E04FF4801200E001220E4BE5
:100ACC005A60012380F82130002380F82030436BDA
:100ADC006BB198470020CDE71022F0E74FF48072FD
:100AEC00EDE74FF48052EAE74FF48032E7E700205D
:100AFC00C0E700BF080002400000024070B582B0A1
:100B0C000024A4469EE07C4DAB4214D00CD8A5F535
:100B1C008015AB420FD005F57025AB420BD0A5F577
:100B2C008015AB421FD106E0744DAB4203D005F5E6
:100B3C008035AB4217D18B68A3B1012B0DD042612C
:100B4C00082410E0CC680EE0CC6804340BE0CC68D0
:100B5C00083408E0CC680C3405E00261082402E09B
:100B6C00002400E00424BEF1FF0F37D806464FEAFC
:100B7C008C0233680F25954023EA050304FA02F230
:100B8C00134333604B6813F0805F59D05C4B9A6908
:100B9C0042F001029A619B6903F001030193019BEE
:100BAC004FEA9C02951C574B53F825600CF003053B
:100BBC00AD000F23AB4026EA0306534B984214D0EA
:100BCC0003F58063984279D003F58063984277D01F
:100BDC0003F58063984206D0042307E0061DACF1B0
:100BEC0008029200C5E7032300E00023AB40334327
:100BFC000232444D45F822304B6813F4801F61D00B
:100C0C00424A936843EA0E0393604B6813F4001F47
:100C1C005ED03E4AD36843EA0E03D3604B6813F4AC
:100C2C00003F5BD0394A536843EA0E0353604B686C
:100C3C0013F4803F58D0354A136843EA0E0313600F
:100C4C000CF1010C0B6833FA0CF253D0012202FAAE
:100C5C000CF203EA020E32EA0303F1D14B68122BB9
:100C6C003FF651AF122B3FF67EAF01A555F823F09E
:100C7C00430B0008510B00085B0B00086D0B0008C0
:100C8C00730B0008730B0008730B0008730B000840
:100C9C00730B0008730B0008730B0008730B000830
:100CAC00730B0008730B0008730B0008730B000820
:100CBC00730B0008550B0008610B0008012395E726
:100CCC00022393E7114A936823EA0E0393609CE78F
:100CDC000E4AD36823EA0E03D3609FE70B4A53688E
:100CEC0023EA0E035360A2E7084A136823EA0E03B3
:100CFC001360A5E702B070BD000022100000311097
:100D0C0000100240000001400008014000040140B6
:100D1C008368194201D001207047002070470AB146
:100D2C0001617047090401617047000008B5054B6B
:100D3C005B69034200D108BD024B586102F064F9B3
:100D4C00F9E700BF0004014003685A6912F4806F90
:100D5C0001D1002070476FF480625A610023036355
:100D6C00202280F83D2080F83E30026C42F00402D4
:100D7C00026480F83C30012070472DE9F0410646B2
:100D8C000C46174698463BE0FFF7A2FD069BC01A9F
:100D9C00404502D8B8F1000F32D1012D18D033687C
:100DAC009B6924EA03039BB2B3FA83F35B099F426A
:100DBC0026D100233363202286F83D2086F83E306E
:100DCC00326C42F02002326486F83C30012027E07D
:100DDC0033685B6924EA03039BB2B3FA83F35B09C0
:100DEC00E5E733685B6924EA030C1FFA8CFCBCFA58
:100DFC008CFC4FEA5C1C674511D1B8F1FF3FC3D1A5
:100E0C00C4F30745012DECD033689B6924EA030C2D
:100E1C001FFA8CFCBCFA8CFC4FEA5C1CEBE7002044
:100E2C00BDE8F0812DE9F84305460E4690469946FB
:100E3C0053E01A6842F400721A602B686FF48062F7
:100E4C005A6100232B63202285F83D2085F83E3023
:100E5C002A6C42F004022A6485F83C3001204AE0F6
:100E6C00FFF736FDA0EB0900404502D8B8F1000FA2
:100E7C0033D1012F17D02B689B6926EA03039BB251
:100E8C00003B18BF012343B300232B63202285F8BA
:100E9C003D2085F83E302A6C42F020022A6485F809
:100EAC003C30012027E02B685B6926EA03039BB2E8
:100EBC00003B18BF0123E6E72B689C6926EA040473
:100ECC00A4B2003C18BF0124A4B12B685A6912F4D7
:100EDC00806FAED1B8F1FF3FC2D1C6F30747012FE7
:100EEC00EAD12B685C6926EA0404A4B2003C18BF62
:100EFC000124E9E70020BDE8F8830000F0B583B0D9
:100F0C0004460D4616461F46C36A082B0DD0012B0E
:100F1C000BD013F5803F08D0036B122B0AD102685B
:100F2C00136843F48073136004E02268136843F47D
:100F3C00807313600097334600224FF00111204656
:100F4C00FFF71BFF80B92369B3F5804F16D12368D7
:100F5C0005F0FE051D613B46324613492046FFF75E
:100F6C0061FFF8B903B0F0BD23681B6813F4807FF0
:100F7C0002D04FF4007323640320F3E7EB112268D3
:100F8C0003F0060343F0F00313613B463246074976
:100F9C002046FFF747FF18B92368EDB21D61DAE769
:100FAC000120DFE70120DDE702000100080001005D
:100FBC0070B504460D46164623685B6913F0800F26
:100FCC0021D12046FFF7C0FEF8B9B5F1FF3FF3D0B1
:100FDC00FFF77EFC801BA84201D8002DECD12368C2
:100FEC005B6913F0800FE7D100232363202284F880
:100FFC003D2084F83E30226C42F02002226484F8BA
:10100C003C30012000E0002070BD0120FCE770B5F1
:10101C0004460D46164623685B6913F0040F21D174
:10102C002046FFF791FEF8B9B5F1FF3FF3D0FFF77B
:10103C004FFC801BA84201D8002DECD123685B69C2
:10104C0013F0040FE7D100232363202284F83D2002
:10105C0084F83E30226C42F02002226484F83C304A
:10106C00012000E0002070BD0120FCE7002800F00A
:10107C00CC8070B5044690F83D30002B77D02423FB
:10108C0084F83D302268136823F001031360226852
:10109C00136843F4004313602268136823F400437D
:1010AC00136000F04BFD62685A4B9A4264D85A4B5D
:1010BC0098428CBF00230123002B40F0A880574995
:1010CC00A1FB00318B0C25686A6822F03F0242EAD2
:1010DC0091426A6021680A6A22F03F0266684D4DAF
:1010EC00AE424FD8013313430B622168CA6922F414
:1010FC004F4222F0FF026568464B9D424CD8431E7E
:10110C006D00B3FBF5F3013340F6FC70034278D06D
:10111C00C3F30B031A43CA6121680B6823F0C003A5
:10112C00E269206A024313430B6021688B6823F445
:10113C00034323F0FF032269E068024313438B60EF
:10114C002168CB6823F0FF036269A0690243134353
:10115C00CB602268136843F0010313600020206405
:10116C00202384F83D30206384F83E0070BD80F865
:10117C003C30FFF7ABF882E7294B98428CBF002339
:10118C00012399E74FF4967505FB03F3254DA5FB59
:10119C0003539B090133A6E7A668BEB9431E05EBB2
:1011AC00450CB3FBFCF30133C3F30B03B3FA83F32A
:1011BC005B0943BBC6B9431E05EB4505B3FBF5F311
:1011CC000133C3F30B0343F40043A3E7431E05EBC6
:1011DC00850C0CEB8C0CB3FBFCF30133C3F30B034E
:1011EC00B3FA83F35B09E4E7431E05EB850505EBD6
:1011FC008505B3FBF5F30133C3F30B0343F4404311
:10120C0088E7042386E7012384E701207047012047
:10121C00ACE700BFA08601007F841E0083DE1B4369
:10122C00FF083D00D34D62102DE9F04385B0044614
:10123C000F46904699460C9EFFF74AFB94F83D10DA
:10124C00202904D00227384605B0BDE8F0830546B6
:10125C000090192301224F492046FFF78EFD0028EC
:10126C0040F0928094F83C30012B00F08F800123E9
:10127C0084F83C3023681A6812F0010F03D11A6805
:10128C0042F001021A602268136823F400631360B1
:10129C00212384F83D30102384F83E30002323644E
:1012AC00C4F82480A4F82A90638D23853A4BE3621A
:1012BC002B46324639462046FFF720FE07460028CB
:1012CC0066D10023039323685A6903929B690393A5
:1012DC00039B11E0236C042B01D00127B3E7226898
:1012EC00136843F400731360F7E72A46314620462F
:1012FC00FFF78DFE00282ED1238D002B36D02A46E9
:10130C0031462046FFF754FE0028E3D1626A236879
:10131C0012781A61606A431C6362618D89B201396B
:10132C0089B26185238D013B9BB22385226851696B
:10133C0011F0040FD9D0002BD7D043781361636A16
:10134C0001336362638D9BB2013B9BB26385238D3A
:10135C00013B2385C9E7236C042B01D0012772E7DD
:10136C002268136843F400731360F7E7226813686C
:10137C0043F400731360202384F83D30002384F879
:10138C003E3084F83C305EE702275CE702275AE7E0
:10139C00012758E7020010000000FFFF2DE9F04381
:1013AC0085B00446884691461D46FFF791FA94F89D
:1013BC003D30202B03D0022005B0BDE8F08306465B
:1013CC0000901923012256492046FFF7D6FC00282D
:1013DC0040F09D8094F83C30012B00F09A80012362
:1013EC0084F83C3023681A6812F0010F03D11A6894
:1013FC0042F001021A602268136823F40063136040
:10140C00242384F83D3000272764464BE3623DE0FB
:10141C0023681B6813F4807F02D04FF4007323649D
:10142C000320C9E7A02384F83D3022685369C3F335
:10143C0040035269C2F3802294F83D10A02909D0D0
:10144C0043B93AB9FFF744FA801BA842EAD8002DF9
:10145C00EBD1E7E7202384F83D3023685A6912F07A
:10146C00020F31D11A6842F400721A6023686FF4CB
:10147C0080625A6100961923012229492046FFF700
:10148C007CFC002849D101374F4538D222681368BB
:10149C0043F48073136000962B4600224FF0011129
:1014AC002046FFF76AFC0028B2D1236808F0FE0240
:1014BC001A61FFF70DFA064622685369C3F340031D
:1014CC005269C2F38022B7E71A6842F400721A60BC
:1014DC000023039323685A6903929B690393039B2C
:1014EC000096192301220E492046FFF746FC90B9BD
:1014FC00202384F83D30002384F83C305CE7202323
:10150C0084F83D30002384F83C30012054E702205D
:10151C0052E7022050E701204EE701204CE700BFC4
:10152C00020010000000FFFF82B0084B1B68084A45
:10153C00A2FB03235B0A00FB03F3019300BF019B97
:10154C005A1E0192002BF9D102B070470000002006
:10155C00D34D6210002800F0F18170B582B00446C2
:10156C00036813F0010F2CD0994B5B6803F00C034C
:10157C00042B1DD0964B5B6803F00C03082B12D088
:10158C006368B3F5803F41D0002B55D103F1804304
:10159C0003F504331A6822F480321A601A6822F4B4
:1015AC0080221A6037E08A4B5B6813F4803FE7D0E7
:1015BC00874B1B6813F4003F03D06368002B00F0CB
:1015CC00BF81236813F0020F75D0814B5B6813F059
:1015DC000C0F5FD07E4B5B6803F00C03082B54D0D0
:1015EC002369002B00F08A807A4B01221A60FFF7E6
:1015FC006FF90546764B1B6813F0020F75D1FFF798
:10160C0067F9401B0228F5D903209EE1704A136844
:10161C0043F480331360636843B3FFF759F905460D
:10162C006B4B1B6813F4003FCBD1FFF751F9401BF8
:10163C006428F5D9032088E1B3F5A02F09D0644BB9
:10164C001A6822F480321A601A6822F480221A6016
:10165C00E1E703F18043A3F53C331A6842F480229E
:10166C001A601A6842F480321A60D4E7FFF730F936
:10167C000546574B1B6813F4003FA2D0FFF728F91F
:10168C00401B6428F5D903205FE1514B5B6813F4D0
:10169C00803FA5D14E4B1B6813F0020F03D023697A
:1016AC00012B40F04F814A4A136823F0F80361691B
:1016BC0043EAC1031360236813F0080F33D0A36906
:1016CC00002B5CD0434B0122C3F88024FFF700F9B8
:1016DC0005463F4B5B6A13F0020F21D1FFF7F8F878
:1016EC00401B0228F5D903202FE1394A136823F057
:1016FC00F803616943EAC1031360DCE7354B002250
:10170C001A60FFF7E5F80546314B1B6813F0020F22
:10171C00D1D0FFF7DDF8401B0228F5D9032014E1E6
:10172C000120FFF701FF236813F0040F00F09680EF
:10173C00274BDB6913F0805F34D1254BDA6942F01B
:10174C008052DA61DB6903F080530193019B012520
:10175C00214B1B6813F4807F26D0E368012B3DD00E
:10176C00002B53D103F1804303F504331A6A22F0A2
:10177C0001021A621A6A22F004021A6233E0154B53
:10178C000022C3F88024FFF7A3F80546104B5B6AD0
:10179C0013F0020FC7D0FFF79BF8401B0228F5D9B6
:1017AC000320D2E00025D3E70B4A136843F480737F
:1017BC001360FFF78DF80646074B1B6813F4807F08
:1017CC00CBD1FFF785F8801B6428F5D90320BCE04A
:1017DC000010024000004242007000405F4A136A51
:1017EC0043F001031362E36833B3FFF771F8064665
:1017FC005A4B1B6A13F0020F2FD1FFF769F8801BAD
:10180C0041F288339842F3D903209EE0052B09D08E
:10181C00524B1A6A22F001021A621A6A22F004026E
:10182C001A62E0E74D4B1A6A42F004021A621A6A15
:10183C0042F001021A62D6E7FFF74AF80646474B18
:10184C001B6A13F0020F08D0FFF742F8801B41F21D
:10185C0088339842F3D9032077E0E5B9E369002B8C
:10186C0072D03E4A526802F00C02082A56D0022B63
:10187C0017D03B4B00221A66FFF72AF80446374B69
:10188C001B6813F0007F47D0FFF722F8001B0228DB
:10189C00F5D9032059E0314AD36923F08053D36141
:1018AC00DCE72F4B00221A66FFF712F805462B4B8C
:1018BC001B6813F0007F06D0FFF70AF8401B0228C4
:1018CC00F5D9032041E0236AB3F5803F1AD02349B0
:1018DC004B6823F47413226A606A024313434B600F
:1018EC001F4B01221A66FEF7F3FF04461B4B1B68C5
:1018FC0013F0007F0ED1FEF7EBFF001B0228F5D989
:10190C00032022E0154A536823F40033A1680B43EB
:10191C005360DCE7002018E0002016E0012B16D005
:10192C000E4B5B6803F48031226A914211D103F4AF
:10193C007013626A93420ED1002006E001207047BA
:10194C00012002E0012000E0002002B070BD012067
:10195C00FBE70120F9E70120F7E700BF0010024088
:10196C0000004242114B5B6803F00C02042A18D0B1
:10197C00082A18D1C3F383420D49885C13F4803FC5
:10198C000BD00A4B5B68C3F340430A4AD35C0A4A48
:10199C0002FB00F0B0FBF3F07047084B03FB00F0C8
:1019AC007047054870470648704700BF001002405A
:1019BC002C350008283500080024F40000093D00EF
:1019CC0000127A00002800F0A08070B50D46044685
:1019DC00524B1B6803F007038B420BD24F4A136820
:1019EC0023F007030B431360136803F007038B42C8
:1019FC0040F08D80236813F0020F17D013F0040F02
:101A0C0004D0474A536843F4E0635360236813F0EF
:101A1C00080F04D0424A536843F460535360404A61
:101A2C00536823F0F003A1680B435360236813F051
:101A3C00010F31D06368012B20D0022B25D0384AFE
:101A4C00126812F0020F64D035494A6822F0030282
:101A5C0013434B60FEF73CFF0646314B5B6803F0CB
:101A6C000C036268B3EB820F16D0FEF731FF801BBC
:101A7C0041F288339842F0D9032045E0284A126895
:101A8C0012F4003FE0D101203EE0254A126812F02A
:101A9C00007FD9D1012037E0204B1B6803F00703EE
:101AAC00AB420AD91D4A136823F007032B4313607A
:101ABC00136803F00703AB422DD1236813F0040F16
:101ACC0006D0174A536823F4E063E1680B43536074
:101ADC00236813F0080F07D0114A536823F460539E
:101AEC00216943EAC1035360FFF73CFF0C4B5B6871
:101AFC00C3F303130B4AD35CD8400B4B18600B4B4E
:101B0C001868FEF7A1FE002070BD0120704701206F
:101B1C00FAE70120F8E70120F6E700BF00200240B9
:101B2C0000100240183500080000002008000020BA
:101B3C00014B1868704700BF0000002008B5FFF784
:101B4C00F7FF044B5B68C3F30223034AD35CD84012
:101B5C0008BD00BF001002401035000808B5FFF7A3
:101B6C00E7FF044B5B68C3F3C223034AD35CD84042
:101B7C0008BD00BF00100240103500082DE9F047E9
:101B8C0082B00546884617461E46FEF7A1FE0A9B04
:101B9C001B1A03EB0609FEF79BFE8246284B1B68BB
:101BAC00C3F3CB3309FB03F301932B689C6838EA2E
:101BBC0004040CBF01230023BB423DD0B6F1FF3F10
:101BCC00F3D0FEF785FEA0EB0A00484507D2019A38
:101BDC0002B14A46019B013B01939146E5E72A6815
:101BEC00536823F0E00353606B68B3F5827F0BD02E
:101BFC00AB6AB3F5005F14D0012385F85130002394
:101C0C0085F85030032018E0AB68B3F5004F02D0D4
:101C1C00B3F5806FECD12A68136823F0400313608E
:101C2C00E6E72A68136823F4005313602A681368E4
:101C3C0043F400531360DFE7002002B0BDE8F087E7
:101C4C000000002070B582B006460C461546009286
:101C5C000B4601220221FFF791FF48B9009523465C
:101C6C00002280213046FFF789FF38B902B070BDE1
:101C7C00736D43F0200373650320F7E7736D43F036
:101C8C00200373650320F1E7002856D010B50446F5
:101C9C00436A33B94368B3F5827F05D00023C3612F
:101CAC0002E00023036143610023A36294F85130E6
:101CBC00002B3CD0022384F851302268136823F0A7
:101CCC0040031360636803F48273A26802F4044255
:101CDC001343E26802F400621343226902F0020229
:101CEC001343626902F001021343A26902F4007209
:101CFC001343E26902F038021343226A02F08002B5
:101D0C001343A26A02F40052216813430B60638BE5
:101D1C00226803F0040353602268D36923F4006340
:101D2C00D36100206065012384F8513010BD84F824
:101D3C0050302046FEF782FCBCE7012070472DE9AD
:101D4C00F04383B00446894690461D46FEF7C0FD1D
:101D5C0094F85130012B40F0CD800646DFB2B9F13A
:101D6C00000F00F0C880B8F1000F00F0C48094F8A8
:101D7C005030012B00F0C380012384F85030032332
:101D8C0084F8513000236365C4F83090A4F8348093
:101D9C00A4F83680A363A387E38763642364A368F2
:101DAC00B3F5004F1ED023681A6812F0400F03D110
:101DBC001A6842F040021A60E368B3F5006F1CD059
:101DCC00636813B1B8F1010F5FD1226B23681278ED
:101DDC001A73236B01332363E38E9BB2013B9BB2DB
:101DEC00E38652E02268136823F0400313602268F4
:101DFC00136843F480431360D5E7636813B1B8F1FB
:101E0C00010F15D1226B23681288DA60236B023321
:101E1C002363E38E9BB2013B9BB2E38608E0FEF7A3
:101E2C0057FD801BA84202D3B5F1FF3F15D1A5B1D8
:101E3C00E38E9BB2002B42D023689A6812F0020FFB
:101E4C00EDD0226B1288DA60236B02332363E38EAE
:101E5C009BB2013B9BB2E386EAE7012384F8513045
:101E6C00002384F85030032745E0226B12781A7354
:101E7C00236B01332363B4F836C01FFA8CFC0CF1CE
:101E8C00FF3C1FFA8CFCA4F836C0E38E9BB2B3B1B6
:101E9C0023689A6812F0020FE7D1FEF719FD801B38
:101EAC00A84202D3B5F1FF3F01D1002DEDD10123A2
:101EBC0084F85130002384F8503003271BE032465D
:101ECC0029462046FFF7BEFE08B120236365A368B0
:101EDC0033B901932368DA6801929B680193019BE3
:101EEC00012384F85130002384F85030636D13B90A
:101EFC00002700E00227384603B0BDE8F083022734
:101F0C00F9E790F851007047026802F10C0353E8AE
:101F1C00003F23F490730C3242E800310029F3D1D6
:101F2C00026802F1140353E8003F23F0010314325A
:101F3C0042E800310029F3D1036B012B05D020239B
:101F4C0080F84230002303637047026802F10C03EF
:101F5C0053E8003F23F010030C3242E80031002913
:101F6C00F3D1ECE790F84130212B01D002207047DF
:101F7C008368B3F5805F17D0036A5A1C02621A7823
:101F8C0003685A60C38C9BB2013B9BB2C3844BB9B0
:101F9C000268D36823F08003D3600268D36843F0EF
:101FAC004003D360002070470369002BE4D1036A1F
:101FBC001B880268C3F308035360036A023303628D
:101FCC00E0E7000010B504460268136923F440539F
:101FDC00C1680B43136183680269134342691A4356
:101FEC000168CB6823F4B05323F00C031343CB608C
:101FFC000268536923F4407381690B43536102688F
:10200C00134B9A4220D0FFF799FD024602EB820255
:10201C0002EB820263689B00B2FBF3F20D48A0FB5B
:10202C0002314909642303FB11231B013233A0FB4A
:10203C0003035B0903F0F00202EB011203F00F0340
:10204C00216813448B6010BDFFF788FD0246DDE765
:10205C00003801401F85EB512DE9F04383B0054654
:10206C000E4617469946DDF828802B681C6836EA20
:10207C0004040CBF01240024BC4228D1B8F1FF3F5A
:10208C00F3D0FEF725FCA0EB0900404523D8B8F1AE
:10209C00000F22D02B68DA6812F0040FE5D0802EE6
:1020AC00E3D0402EE1D01A6812F0080FDDD00024E6
:1020BC0001941A6801925B680193019B2846FFF713
:1020CC0023FF08236B6485F84040012000E00020CA
:1020DC0003B0BDE8F0830320FAE70320F8E760B310
:1020EC0010B5044690F8413013B3242384F84130E2
:1020FC002268D36823F40053D3602046FFF762FFB5
:10210C002268136923F4904313612268536923F006
:10211C002A0353612268D36843F40053D360002030
:10212C006064202384F8413084F84230606310BD31
:10213C0080F84030FEF71CFBD7E7012070472DE9F3
:10214C00F04182B01E4690F84130202B56D1044607
:10215C000D469046002955D00AB901204FE00023C6
:10216C004364212380F84130FEF7B2FB0746A4F804
:10217C002480A4F82680A368B3F5805F02D04FF0CA
:10218C00000814E023692BB34FF000080FE0202364
:10219C0084F84130032032E038F8023B2268C3F364
:1021AC0008035360E28C92B2013A92B2E284E38C5F
:1021BC009BB293B100963B46002280212046FFF74C
:1021CC004BFF0028E3D1002DE6D015F8012B236836
:1021DC005A60E7E7A8460025E9E700963B4600224F
:1021EC0040212046FFF738FF18B9202384F84130EE
:1021FC0005E0202384F84130032000E0022002B0E7
:10220C00BDE8F0810120FAE7704708B50168CA689B
:10221C0022F04002CA60202280F84120FFF7F4FF30
:10222C00002008BD7047704708B5406A0023C3857D
:10223C00C384FFF7F8FF08BD704790F84230222B9B
:10224C0069D18368B3F5805F4FD0826AB3F5805F44
:10225C0004D0002B56D10369002B53D103685B6863
:10226C001370836A01338362C38D9BB2013B9BB2B3
:10227C00C385002B51D100B583B00268D36823F01D
:10228C002003D3600268D36823F48073D3600268A0
:10229C00536923F001035361202380F8423000235B
:1022AC004363036B012B33D100230363026802F1F8
:1022BC000C0353E8003F23F010030C3242E80031CA
:1022CC000029F3D103681A6812F0100F06D000220F
:1022DC0001921A6801925B680193019B818DFFF753
:1022EC00ABFF002003B05DF804FB0269002AACD1FF
:1022FC00826A03685B68C3F308031380836A023342
:10230C008362B1E703685B6803F07F031370A8E78F
:10231C00FFF788FFE5E702207047002070470000B8
:10232C0010B582B0044602681368D068516913F086
:10233C000F0F09D113F0200F0CD010F0200F09D083
:10234C002046FFF77AFF16E011F0010115D110F4C9
:10235C00907F12D1216B012979D013F0800F03D01B
:10236C0010F0800F40F0138113F0400F03D010F0E9
:10237C00400F40F0108102B010BD13F0010F06D0D9
:10238C0010F4807F03D0626C42F00102626413F09F
:10239C00040F04D019B1626C42F00202626413F0B3
:1023AC00020F04D019B1626C42F00402626413F0A3
:1023BC00080F07D010F0200F00D119B1626C42F059
:1023CC0008026264626C002AD5D013F0200F02D090
:1023DC0010F0200F29D123685B6903F04003626C75
:1023EC0012F0080F00D163B32046FFF78DFD236870
:1023FC005B6913F0400F20D0226802F1140353E8FC
:10240C00003F23F04003143242E800310029F3D19D
:10241C00E36B73B1624A5A63E06BFEF723FB00284F
:10242C00A9D0E06B436B9847A5E72046FFF705FF63
:10243C00D1E72046FFF7F7FE9DE72046FFF7F3FEB6
:10244C0099E72046FFF7EFFE0023636493E713F050
:10245C00100F82D010F0100F3FF47FAF00230193C8
:10246C001368019353680193019B536913F0400F58
:10247C0051D0E26B13685B689BB2002B3FF47BAFCF
:10248C00A18D99427FF677AFE3859369202B37D0E6
:10249C00226802F10C0353E8003F23F480730C32E2
:1024AC0042E800310029F3D1226802F1140353E809
:1024BC00003F23F00103143242E800310029F3D12C
:1024CC00226802F1140353E8003F23F04003143256
:1024DC0042E800310029F3D1202384F84230002354
:1024EC002363226802F10C0353E8003F23F010032E
:1024FC000C3242E800310029F3D1E06BFEF790FA80
:10250C0002236363A18DE38D9BB2C91A89B2204665
:10251C00FFF792FE2FE7A18DE38D9BB2C91A89B20A
:10252C00E38D9BB2002B3FF426AF00293FF423AF81
:10253C00226802F10C0353E8003F23F490730C3231
:10254C0042E800300028F3D1226802F1140353E86A
:10255C00003F23F00103143242E800300028F3D18D
:10256C00202384F8423000232363226802F10C03F9
:10257C0053E8003F23F010030C3242E800300028EF
:10258C00F3D1022363632046FFF756FEF3E62046A1
:10259C00FFF7E8FCEFE62046FFF737FEEBE600BF5F
:1025AC003522000890F8413090F8420018437047EB
:1025BC0000B583B051B960F07F008DF804000120A4
:1025CC0001A900F0D5FB03B05DF804FB8C4660F06C
:1025DC003F008DF804007F2903D88DF805100220E8
:1025EC00EEE761F07F018DF80510CCF3C71C8DF878
:1025FC0006C00320E4E700B583B041B98DF80400B0
:10260C00012001A900F0E6FB03B05DF804FB8C4649
:10261C0040F040008DF804007F2903D88DF8051098
:10262C000220EEE761F07F018DF80510CCF3C71C9A
:10263C008DF806C00320E4E700B583B001AB04229B
:10264C0089B280B2FFF7D7FF0323002007E003F124
:10265C0008026A4412F8042C02EB0020013B002B08
:10266C00F5DA03B05DF804FB08B500210846FFF766
:10267C00E3FF08BD00B583B001AB022289B280B282
:10268C00FFF7B9FF9DF805309DF8040000EB03201F
:10269C0080B203B05DF804FB00B583B08DF8072061
:1026AC000DF10703012289B280B2FFF781FF03B05D
:1026BC005DF804FB00B583B08DF80420120A8DF888
:1026CC00052001AB022289B280B2FFF771FF03B083
:1026DC005DF804FB00B583B0002306E003F1080CA1
:1026EC00EC440CF8042C120A0133032BF6DD01AB7D
:1026FC00042289B280B2FFF75BFF03B05DF804FBE4
:10270C0008B5024604212D20FFF7D4FF0322062131
:10271C002D20FFF7C1FF002206212D20FFF7BCFF63
:10272C000A212D20FFF788FF08BD08B500220221E1
:10273C002C20FFF7B1FF022211462C20FFF7ACFF33
:10274C0008BD10B504466D2240F606012E20FFF799
:10275C00A3FF3CB140F2076241F606012E20FFF7C1
:10276C00A9FF10BD41F2076241F606012E20FFF7CA
:10277C00A1FFF6E72DE9F041044605784279794B43
:10278C0033F812704678013EF6B2042D00F0C58085
:10279C00072D00F0BF804FF00008E379002B40F0CC
:1027AC00BF80714B1A68136943F480031361FF08EF
:1027BC006D4B1968237A8B720A6922F440320A61D4
:1027CC00237A1B0403F440331A430A6100210420CA
:1027DC00FFF780FF3A4642F604012E20FFF76AFF0E
:1027EC003046FFF7AEFF614B5F5D614B53F827201E
:1027FC0007212B20FFF76EFF5E4BDA5D0B212B20A0
:10280C00FFF74AFF5C4B13F808200B212820FFF739
:10281C0043FF5A4B53F827200C212820FFF75AFF6F
:10282C00E279A37903EB4203554A32F813200221D3
:10283C002720FFF73FFF534B33F8162004212720A6
:10284C00FFF738FFE379002B71D0A378042B74D0F9
:10285C00202206212720FFF72DFF282226212720C2
:10286C00FFF71AFFE37803EB8603474A52F823205D
:10287C0008212720FFF72EFF638913B941F241038A
:10288C006381628920212720FFF714FF3F4F3A68AC
:10289C000C212320FFF71EFF07EB4607BA88042103
:1028AC002320FFF707FFA279002A51D1114605F02A
:1028BC000F032D01EDB22B436078800400F440200F
:1028CC000343120502F4401213434A0402F400328B
:1028DC0013432279920502F0F8621343627943EABA
:1028EC00C26200211F20FFF7F5FEA3786278134324
:1028FC00E27952031C49096842EA0342CA6000218A
:10290C000820FFF7E7FE422200210D20FFF7C4FE4E
:10291C00BDE8F0814FF001083FE74FF001083CE7BC
:10292C00114B1A68136923F48003136140E7642286
:10293C0006212720FFF7BEFE94E710220621272050
:10294C00FFF7B8FE102226212720FFF7A5FE89E706
:10295C00E3790F4AD25C00212120FFF79DFE012173
:10296C000322A4E73C3500080C000020E8350008E1
:10297C00B8350008B0350008AC350008D035000873
:10298C00943500089035000870350008A43500080F
:10299C00A035000838B510F0010F2AD004460021EC
:1029AC002620FFF749FE20F4705242F4A052002179
:1029BC002620FFF78FFE00213620FFF73DFE40F466
:1029CC00040200213620FFF785FE14F002040ED11C
:1029DC004FF488752A4628213620FFF77BFE94B1E8
:1029EC0005F4887228213620FFF774FE0BE0064DA3
:1029FC00F0E700212620FFF71FFE20F47052002183
:102A0C002620FFF767FE38BD10010F0010B582B00D
:102A1C00044601AB022200213620FFF7ECFD0E2C00
:102A2C0012D8DFE804F020082911111111324111DC
:102A3C00114E555C650000238DF804309DF805306F
:102A4C0003F0FE038DF8053001AB01220021362086
:102A5C00FFF7AEFD0DF10503012211463620FFF7FD
:102A6C00A7FD02B010BD9DF8043023F0030343F022
:102A7C0001038DF80430E7E79DF8043023F00303DD
:102A8C0043F002038DF80430DEE79DF8043023F0A8
:102A9C004C0343F048038DF804309DF8053063F087
:102AAC007F038DF80530CFE79DF8043003F0B303B6
:102ABC008DF804309DF8053003F07F038DF8053058
:102ACC00C2E79DF8053043F002038DF80530BBE7F3
:102ADC009DF8053003F0FD038DF80530B4E79DF843
:102AEC00043023F0300343F020038DF80430ABE7BF
:102AFC0001238DF8043003238DF80530A4E708B5C5
:102B0C000E20FFF783FF4FF4004206212D20FFF724
:102B1C00D1FD012000F028F90120FFF777FF08BD57
:102B2C0008B50020FFF772FF002204213620FFF7C2
:102B3C00C1FD08BD08B5FFF7F3FF002211462C209C
:102B4C00FFF7B8FD002206212C20FFF7A5FDFFF7AB
:102B5C00ECFD002203213620FFF79EFD012000F042
:102B6C0003F9F02203213620FFF796FD024B1B6878
:102B7C0000225A7508BD00BF0C00002008B500F0FB
:102B8C001F0242F060020E212B20FFF785FD08BDCD
:102B9C0070B504466A4B1B6800221A755A75DA82A6
:102BAC009A62DA621A635A63FFF75EFD654B9842CC
:102BBC0040F0C38014F002051BD014F0F80F02D1C2
:102BCC000020FFF723FF042200212420FFF764FDDF
:102BDC00F5B90420FFF794FD10F0FF0F0CD12DB3C5
:102BEC0004F00A030A2B21D0554B1A680023D37228
:102BFC0025E0FFF79FFFE3E7022212212D20FFF7CC
:102C0C004BFD4F4B1A68D38A43F48053D382E6E7CB
:102C1C0030212820FFF710FDB0F1883FDFD0484B62
:102C2C001A68D38A43F48053D382D8E71E20FFF767
:102C3C0067FD83B2424A1268C0F30720D07235B9DF
:102C4C0013F01F0F00D11023D8B2FFF797FF14F029
:102C5C00100F40D13A4B1B6800221A6014F0200F61
:102C6C0040D1374B1B6800225A6014F0400F40D102
:102C7C00334B1B6800221A7214F0800F40D1304B7A
:102C8C001B6800225A72002D4DD114F0010F3ED05A
:102C9C00FFF735FF2A4B1A68D38A43F40063D382BB
:102CAC000120FFF7B3FE00220A212C20FFF7F4FCD1
:102CBC00234C256800210420FFF7BEFC2861246802
:102CCC00638A03F00303A37200210820FFF7B4FC0E
:102CDC00E060002070BD1A4B1E680620FFF710FD47
:102CEC003060BBE7164B1E680720FFF709FD7060CC
:102CFC00BBE70820FFF704FD114B1B681872BBE7FC
:102D0C000920FFF7FDFC0E4B1B685872BBE7052131
:102D1C003620FFF7AFFC20F4007292B2052136206A
:102D2C00FFF7C8FCBCE714F0040FB9D1044B1A68C8
:102D3C00D38A43F40063D382B2E74FF0FF30C9E784
:102D4C000C0000203001CADE10B500F093F90446E7
:102D5C0008B9204610BD00F07FF9FAE700B97047BA
:102D6C0008B500F080F908BD08B500F0A7F808BD5B
:102D7C002DE9F8438146884616461F46FFF7E4FFC7
:102D8C0005461248FFF7BDF801280446F9D1002288
:102D9C0010210F48FDF7C3FF4A4641464FF0FF3361
:102DAC000A48FEF7CCFF4FF0FF333946B2B2074862
:102DBC00FEF7C5FF224610210548FDF7B0FF284657
:102DCC00FFF7CCFF0020BDE8F88300BF980000207F
:102DDC00000801402DE9F04180460C4617461D467F
:102DEC00FFF7B2FF06461B48FFF78BF80128FAD114
:102DFC00002210211848FDF792FFB8F1000F0AD0FD
:102E0C00A04421464FF0FF33012212480134FEF753
:102E1C0096FF4445F5D18FB14FF0000C0D4CE819DD
:102E2C0021688A689207FCD5C1F80CC08A68D30760
:102E3C00FCD5CB6805F8013BA842F1D10122102149
:102E4C000548FDF76CFF3046FFF788FF0020BDE812
:102E5C00F08100BF980000200008014080B485B0CC
:102E6C0000AFC7E900010021F96012E00021B96050
:102E7C0004E000BF00BFB9680131B960B96801292D
:102E8C00D4BF01210021C9B20029F2D1F968013166
:102E9C00F960F968C8170A460346D7E9000182426F
:102EAC0073EB010134BF01210021C9B20029DDD12E
:102EBC00002318461437BD4680BC704780B582B0DD
:102ECC0000AF78607868FDF709FD00BF0837BD4694
:102EDC0080BD000080B483B000AF78600A4A7B6884
:102EEC005B0952F823207B6803F01F0322FA03F3DB
:102EFC0003F00103002B14BF01230023DBB218469F
:102F0C000C37BD4680BC704700E100E080B584B052
:102F1C0000AF4FF480533B6011237B600223FB60B6
:102F2C003B4619460C48FDF7E9FD00224FF4805151
:102F3C000948FDF7F4FE4FF001004FF00001FFF7D8
:102F4C008DFF002000F00AF80220FFF7B7FF00BF4A
:102F5C001037BD4680BD00BF000C014080B586B067
:102F6C0000AF78607B68002B15D04FF48053BB60AA
:102F7C00174BFB6000233B6107F10803194615480A
:102F8C00FDF7BCFD0620FDF725FD002205210620DE
:102F9C00FDF710FD17E00620FDF72AFD4FF48053D6
:102FAC00BB601123FB6000233B6103237B6107F1B2
:102FBC00080319460748FDF7A1FD01224FF4805183
:102FCC000448FDF7ACFE00BF1837BD4680BD00BFFE
:102FDC0000001110000C014080B500AF034B202203
:102FEC00DA610248FEF750FE00BF80BD9800002059
:102FFC0080B500AF034B0822DA610248FEF744FEAD
:10300C0000BF80BD9800002080B582B000AF0346A1
:10301C00FB80FB88B3F5805F03D1064B01221A605D
:10302C0004E0FB88012B01D100F006F800BF083743
:10303C00BD4680BD7801002080B500AF02E0054B95
:10304C001B68984700F01EF80346002BF7D100BF11
:10305C0000BF80BD7401002080B500AF172000F0C8
:10306C002BF800BF80BD80B500AF172000F016F81C
:10307C0000BF80BD80B500AF1720FFF72BFF0346C4
:10308C00184680BD80B500AF01210348FDF740FE16
:10309C000346184680BD00BF000C0140002807DB2A
:1030AC0000F01F02400901239340024A42F82030ED
:1030BC00704700BF00E100E000280CDB00F01F02AD
:1030CC004009012393402030034A42F82030BFF3DB
:1030DC004F8FBFF36F8F704700E100E008B5FFF72B
:1030EC0015FFFFF779FF0120FFF752FDB0F1FF3F0D
:1030FC0003D0FFF77DFF012008BD1A21014800F025
:10310C004DF8FEE7F035000808B50448FFF732FB30
:10311C000120FFF73FFC012008BD00BF100000207C
:10312C0008B54FF48A720021024800F0D3F8002051
:10313C0008BD00BF7C010020034610B119600020BF
:10314C007047014BFAE700BF7C01002010B4044625
:10315C0048B1C9B1D2B10878D0B1D4F81001072860
:10316C0003D9022015E00C4CF3E700EB400C04EB08
:10317C008C0CCCF8B410CCF8B020CCF8B8300130B2
:10318C00C4F81001002004E0012002E0012000E05E
:10319C00012010BC704700BF7C01002010B5E8B1C5
:1031AC000A46014612B90424204610BD64230C487B
:1031BC00FEF7C5FF04460A48FFF7F4F92028FAD1B8
:1031CC00032CF1D801A353F824F000BFB53100084B
:1031DC00B5310008B5310008B53100080424E3E727
:1031EC00F000002010B5044600F0EEF881B2204645
:1031FC00FFF7D4FF10BD000008B50A4B1B7843B194
:10320C00084B00221A7011210748FFF7C7FF002056
:10321C0008BD044B01221A7010210448FFF7BEFFB1
:10322C00F5E700BF900200200C360008203600089D
:10323C0008B504210448FFF7B1FF03210348FFF749
:10324C00ADFF002008BD00BF343600083C36000836
:10325C0008B510210248FFF7A1FF002008BD00BFF0
:10326C0040360008014B00221A7070479002002073
:10327C0008B5FFF7F7FF0020FFF752FF0B490020BE
:10328C00FFF75AFF0A4B0B4A0B490020FFF75EFF72
:10329C000A4B0B4A0B490020FFF758FF0A4B0B4A0D
:1032AC000B490020FFF752FF08BD00BFF1310008A9
:1032BC005436000805320008643600086C360008E5
:1032CC003D3200087C360008843600085D32000868
:1032DC009C360008830730B546D08446841805E038
:1032EC00634603F8011B9D0703D09C46A445F7D108
:1032FC0030BD013A0244A2EB0C02032A29D9CCB20C
:10330C0004EB04240F2A04EB04442FD9A2F1100C73
:10331C002CF00F0C03F11005AC44C3E90044C3E9D5
:10332C00024410336345F8D112F00C0F02F00F0E6B
:10333C0018D01A462EF0030C9C44AEF1040542F84A
:10334C00044B6245FBD125F0030404330EF0030259
:10335C002344002ACCD0C9B21A4403F8011B93426F
:10336C00FBD130BD7246F4E70346C6E79646E0E76C
:10337C0070B50F4B0F4DAB42A3EB050607D00024E5
:10338C00B61055F8043B01349847A642F9D800F022
:10339C00ADF8094D094B5E1BAB424FEAA60606D0B1
:1033AC00002455F8043B01349847A642F9D870BD67
:1033BC00A4360008A4360008A4360008AC36000871
:1033CC00704700BF704700BF20F0030110F00300EE
:1033DC00C0F1000051F8043B00F1040C4FEACC0C96
:1033EC006FF000021CBF22FA0CF213434FF0010CD9
:1033FC004CEA0C2C4CEA0C4CA3EB0C0222EA030218
:10340C0012EACC1204BF51F8043B0430F4D0C2F1E0
:10341C00000102EA0102B2FA82F2C2F11F0200EBD1
:10342C00D2007047024B13B1024800F005B8704748
:10343C000000000051340008002301461A461846CB
:10344C0000F014B838B5074D074C2C1BA41005D050
:10345C00013C55F8043D9847002CF9D1BDE83840A3
:10346C0000F04AB8B0360008AC3600082DE9F84335
:10347C001B4D0646286898460F469146FFF7A0FF5D
:10348C00184B1C681CB3286865681F2D22DC4EB9CC
:10349C006B1C0235636044F82570FFF793FF002026
:1034AC00BDE8F883012304EB8501C1F88890D4F8BA
:1034BC008821AB401A43022EC4F88821C1F8088138
:1034CC00E6D1D4F88C211A43C4F88C21E0E7064CE1
:1034DC001C60D8E7FFF776FF4FF0FF30E0E700BF46
:1034EC001C000020980200209C020020F8B500BFB0
:1034FC00F8BC08BC9E467047F8B500BFF8BC08BCC9
:04350C009E46704720
:1035100000000000010203040000000000000000A1
:103520000102030406070809010200000203040562
:10353000060708090A0B0C0D0E0F10100000985911
:103540009859EA518E421E45142E0080EA51F42803
:103550003233E03A703DE03AC235842BC235323323
:10356000C235C235AE47E03A5038A230503800007C
:103570003C001A3152001A339A001A351D011A37CD
:103580006B003B31BE003B335E013B3596023B375F
:1035900087008D000A0016000100060001000200ED
:1035A0004010080007A9022570889B88D8BC00003D
:1035B0001E265626BEBE0000070400090805400866
:1035C00009104008080540081D0400081D040008F3
:1035D000405C0000A05C0400C06C0800805C04003B
:1035E000E03F1E00E07D1E00000001020304000514
:1035F000496E697469616C69736520647731303034
:1036000030206661696C65640D0A00005465726D56
:10361000696E616C206563686F204F46460000004C
:103620005465726D696E616C206563686F204F4EE2
:10363000000000001B5B324A000000001B5B4800DA
:103640005465726D696E616C2074657374210D0A26
:1036500000000000746F67676C65207465726D69A7
:103660006E616C206563686F00000000636C6561CB
:1036700072207465726D696E616C0000636C6561C7
:10368000720000007072696E74205465726D696E0C
:10369000616C20746573742100000000746573749C
:0436A0000000000026
:0836A400313400087501000833
:0436AC004D010008C4
:1036B00000127A0001000000100000003C01002010
:1036C00002022803090901000000010894020020F9
:0400000508000809DE
:00000001FF
